:020000040000FA
:0400000013EF07F003
:080008008EEF08F0F853000030
:1000100001E11200F90E00000000000000000000E5
:1000200000000000000000000000000000000000D0
:100030000000000000000000000000000000FF0FB2
:10004000D8A4E9D700000000000000000000000074
:1000500000000000000000000000000000000000A0
:100060000000000000000000000000000000F82F69
:10007000D1D712000001E96BE76B68966896689625
:100080006896080E0401016F880E006F080E046F59
:100090006E6A686A050E696E160E706E010E0001BA
:1000A000EF6FE86F1200689469946D920001E76B3E
:1000B0001200040106510101246F286B296B040111
:1000C00007510101256F2951242728512523266B2B
:1000D0000001F051010126611BD00001DE51DC5D01
:1000E00002E1DD51DB5D14E2DC51EA6EDB51E96EC9
:1000F000EF500101276F2551EA6E24512625E96E44
:100100002751EF6E0001DB4BDC2B0101262BE0D7E2
:100110000001F0510101266102D00001EB6B0101E9
:1001200026510401056F400E0417400E041B880E73
:100130000413120081B404D0010E0001FA6F120002
:100140000001FA6B1200689A1200698469986D8246
:10015000010E0001E76F12006C500001EC6FEC31F2
:10016000ED6FED33ED331F0EED17D890ED37040E24
:10017000EC1501011C6F1D6B1C510001ED2702E302
:1001800001011D2B01011D330001ED3301011D3360
:100190000001ED33E051EA6EDF51E96EED510101EE
:1001A0001C6F1C371C37FC0E1C15E926EF50596ECE
:1001B0000001DF51E96EED5101011C6F1C371C3746
:1001C000FC0E1C15E926EC505A6E0001DF51E96E59
:1001D000ED5101011C6F1C371C37FC0E1C15E92664
:1001E000020EE926EE505B6EEF505C6E68963C0E98
:1001F0005914196F240E19630ED0040E0001EC631C
:1002000006D0060EEB63120059EC00F012000C0E43
:10021000EC63120012003C0E59141A6F040E1A639C
:1002200008D00001EC53D8B41200080EEC631200A1
:1002300012003C0E59141B6F340E1B631200040194
:1002400002510001E16F01011F6B206B040103519A
:100250000001E26F010120510001E12701011F515E
:100260000001E223E251EA6EE151E96EEF50BF6F07
:10027000EC50C06FE906020EE926EE50C16FEF5058
:10028000C26FE151E96E040EE926EE50C36FEF50E4
:10029000C46FE151E96E060EE926EE50C56FEF50CE
:1002A000C66F6A90080E0401016F210E0001BF6342
:1002B00004D0C80E0401006F03D0880E0401006F43
:1002C000080E046F6D980001EB6BBF5313E0BF0580
:1002D000D8B470D0020EBF6301D08DD0800EBF6342
:1002E00001D015D1810EBF6301D0AFD2820EBF63A2
:1002F000FBD3ACD3C0050CE0030EC06301D017D014
:10030000050EC06301D027D0090EC06351D035D08F
:10031000010EC1630AD0C25108E1E8930401056BE4
:10032000C80E046F0001EB6B120070801200C15107
:1003300001011C6F1D6B010E1C630BD01D5109E1E7
:100340000001E8830401056BC80E046F0001EB6B2C
:10035000120070801200C151EA6F800EEA610BD06A
:100360000401056BC80E046F0001EB6B050EEB6F0B
:10037000090E696E120070801200010EC165C2671D
:1003800002D0C151E96FC15305E1C25303E1020E2E
:10039000EF6F02D0030EEF6F0401056BC80E046F00
:1003A0000001EB6B480E04010C6F1E0E716E120003
:1003B000708012000B0EC06301D006D0C00519E09A
:1003C000030EC06316D015D0030EEF6310D0C351D7
:1003D000FE6F00EE5DF0E950FE51E926C151EF6E6F
:1003E0000401056BC80E046F0001EB6B12007080F6
:1003F000120070801200C00504E0030EC06385D0B7
:100400003FD00F0EFB6F700EFA6F0F0EC315FD6F0E
:10041000C15334E1C25332E1030EEF1501011E6FE7
:10042000020E1E6310D00001FD530DE1FB51EA6E78
:10043000FA51FD25E96EEF900401056BC80E046FBB
:100440000001EB6B1200030E0001EF1501011E6F9E
:10045000030E1E6311D0030E0001FD610DD0FB5190
:10046000EA6EFA51FD25E96EEF900401056BC80EA6
:10047000046F0001EB6B120070801200708012009C
:100480000F0E01011E6F700E0001FA6F01011E5167
:100490000001FB6F0F0EC315FD6FC15334E1C25352
:1004A00032E1030EEF1501011E6F020E1E6310D024
:1004B0000001FD530DE1FB51EA6EFA51FD25E96E95
:1004C000EF800401056BC80E046F0001EB6B120096
:1004D000030E0001EF1501011E6F030E1E6311D004
:1004E000030E0001FD610DD0FB51EA6EFA51FD25AE
:1004F000E96EEF800401056BC80E046F0001EB6B21
:100500001200708012007080120070801200080EBD
:10051000C06301D008D0060EC06301D028D0C053FC
:10052000D8B470D11200040106510001F86F010126
:100530001F6B206B040107510001F96F010120516D
:100540000001F82701011F510001F923F951EA6E5A
:10055000F851E96E01011E6B1E51E9260001E951B7
:10056000EF6E010E0401056FC80E046F1200C25138
:10057000FF6FFF053DE1060EEB6F000EDC6FA40E72
:10058000DB6F000E0101206FA40E0001DD6FDE6B3A
:10059000120EDD27010120510001DE23DB51DD5D5C
:1005A00001011E6F0001DC51DE5901011F6F1F5157
:1005B0000001C65D04E101011E510001C55D13E2A9
:1005C000C551DB250101206F0001C6510101216FDA
:1005D0000001DC510101212320510001DD6F0101E7
:1005E00021510001DE6F080EF06F59EC00F012008F
:1005F000020EFF633DD0060EEB6F000EDC6F370E70
:10060000DB6F000E0101206F370E0001DD6FDE6B26
:10061000220EDD27010120510001DE23DB51DD5DCB
:1006200001011E6F0001DC51DE5901011F6F1F51D6
:100630000001C65D04E101011E510001C55D13E228
:10064000C551DB250101206F0001C6510101216F59
:100650000001DC510101212320510001DD6F010166
:1006600021510001DE6F080EF06F59EC00F012000E
:10067000030EFF63C3D0C1510101186F060E0001C4
:10068000EB6F080EF06F0101185306E018053EE00D
:10069000020E1863AFD074D0000E0001DC6FC70EDD
:1006A000DB6F000E0101246FC70E0001DD6FDE6BF2
:1006B000C751DD27010124510001DE23DB51DD5D3F
:1006C00001011E6F0001DC51DE5901011F6F1F5136
:1006D0000001C65D04E101011E510001C55D13E288
:1006E000C551DB250101246F0001C6510101256FB1
:1006F0000001DC510101252324510001DD6F0101BE
:1007000025510001DE6F59EC00F01200000E0001CF
:10071000DC6F900EDB6F000E0101246F900E000164
:10072000DD6FDE6B9051DD27010124510001DE23D6
:10073000DB51DD5D0101206F0001DC51DE5901015B
:10074000216F21510001C65D04E10101205100012A
:10075000C55D13E2C551DB250101246F0001C651BF
:100760000101256F0001DC51010125232451000105
:10077000DD6F010125510001DE6F59EC00F0120020
:10078000000E0001DC6F600EDB6F000E0101246FB4
:10079000600E0001DD6FDE6B6051DD270101245129
:1007A0000001DE23DB51DD5D0101226F0001DC5120
:1007B000DE590101236F23510001C65D04E10101EF
:1007C00022510001C55D13E2C551DB250101246FF3
:1007D0000001C6510101256F0001DC5101012523F3
:1007E00024510001DD6F010125510001DE6F59EC3C
:1007F00000F01200CC0E0401046F1200CC0E0401B4
:10080000046F1200E051EA6EDF51E96E040EE92632
:10081000020EE926EE50F86FEF50F96FF951EA6ECB
:10082000F851E96E01011E6B1E51E9260001E851E5
:10083000EF6EF851E96E010EE926000EEF6E020E22
:100840000401056FC80E046F12000A0EC06301D0C8
:1008500006D0C05335E0060EC06312008AD0C351E3
:10086000FE6F030EEF632AD0010EFE6127D0E05128
:10087000EA6EDF51E96E040EE926020EE926EE501B
:10088000F86FEF50F96F00EE5DF0E950FE51010195
:100890001F6F1F51E926EF50206F0001F951EA6EDA
:1008A000F851E96E01011E6B1E51E9262051EF6ED1
:1008B000010E0401056FC80E046F12007080120053
:1008C000E051EA6EDF51E96E040EE926020EE926D8
:1008D000EE50F86FEF50F96FF951EA6EF851E96E8A
:1008E000010EE926000EEF6E020E0401056F0001F5
:1008F000C351FE6F020EEF631BD0FE5319E100EEF1
:100900005DF0E950FE5101011F6F1F51E926EF50C4
:10091000206F0001F951EA6EF851E96E01011E6B7A
:100920001E51E9262051EF6EC80E0401046F12001B
:10093000030EEF631CD0010EFE6119D000EE5DF0D6
:10094000E950FE5101011F6F1F51E926EF50206F42
:100950000001F951EA6EF851E96E01011E6B1E515A
:10096000E9262051EF6EC80E0401046F120070805A
:100970001200C251FC6F220EFC6331D0060EEB6FE9
:10098000C353D8B4C453000EDC6F050EDB6FDE6BAF
:10099000320EDB25DD6FDC51DE23080EF06F320EE8
:1009A000C55D15E2C66713D0C551DB2501011E6F79
:1009B0000001C65101011F6F0001DC5101011F231D
:1009C0001E510001DD6F01011F510001DE6F59EC66
:1009D00000F0010E0001C3631200C4511200210E89
:1009E000FC6332D0060EEB6FC35328E1C45326E1FB
:1009F000000EDC6FB60EDB6FDE6B090EDB25DD6FE4
:100A0000DC51DE23080EF06F090EC55D15E2C667E6
:100A100013D0C551DB2501011E6F0001C651010134
:100A20001F6F0001DC5101011F231E510001DD6F0A
:100A300001011F510001DE6F59EC00F0010E0001B1
:100A4000C3631200C451120070801200C053D8A4B6
:100A500012000F0E01011E6F700E0001FA6F0101EE
:100A60001E510001FB6F0F0EC315FD6F04010651EF
:100A700001011E6F216B226B0401075101011F6FE1
:100A800022511E2721511F231E510001F86F010121
:100A90001F510001F96FF951EA6EF851E96E010E2C
:100AA000E926000EEF6E020E0401056F030E000131
:100AB000FD6118D0FB51EA6EFA51FD25E96E010E79
:100AC000EF1401011F6F0001F951EA6EF851E96E50
:100AD00001011E6B1E51E9261F51EF6EC80E040165
:100AE000046F120070801200BFAB120004010651A7
:100AF00001011E6F216B226B0401075101011F6F61
:100B000022511E2721511F231E510001F86F0101A0
:100B10001F510001F96F210EBF6301D014D0A10E47
:100B2000BF6301D029D0220EBF6301D045D0230E70
:100B3000BF6301D043D0A20EBF6301D041D0A30E4A
:100B4000BF6342D03FD00B0EC06301D008D0090E66
:100B5000C06301D012000A0EC0630CD009D0C1518D
:100B6000EE6F0401056BC80E046F0001EB6B120001
:100B70007080120070801200030EC06301D007D095
:100B8000C005D8B41200020EC06314D011D0F951C0
:100B9000EA6EF851E96E01011E6B1E51E926000153
:100BA000EE51EF6E010E0401056FC80E046F1200C6
:100BB000708012007080120070801200708012002D
:100BC0007080120070801200708012006AA005D040
:100BD0006BA003D00001CB4BCC2B6AA205D06BA23B
:100BE00003D00001CD4BCE2B6AA405D06BA403D05B
:100BF0000001CF4BD02B6AA605D06BA603D0000115
:100C0000D14BD22B6AA805D06BA803D00001D34BDF
:100C1000D42B6AAE05D06BAE03D00001D94BDA2BD2
:100C20006A6A689212000001E5B302D0F16BE583B5
:100C3000F86BF153D890F1379AEC00F0FA51F113B8
:100C4000C70EF115F96F070EF96303D0010EF86FA7
:100C5000F169F851FA6F120068B6ACEC00F068BAAE
:100C6000A3EC00F068B2E6EC05F069B8A5EC00F082
:100C70001200936A800E04010C150001FE6FFE53F2
:100C80003AE1F85104010D6F0E510001FB6F0101B3
:100C9000196B0001FF6B04010F510001FC6FFF5144
:100CA000FB27010119510001FC23FD6BF851FD6187
:100CB00017D0FA51EA6EF951E96EFD51FF6FFF51FD
:100CC000E926EF500101186F0001FC51EA6EFB515B
:100CD000FD25E96E01011851EF6E0001FD2BE6D7ED
:100CE000400E04010C17400E0C1B880E0C1B010E4D
:100CF0000001FF6F1200FF6B12006F846F88698024
:100D0000A08A6D8C6D9C6D860001E96B010EE86F09
:100D1000F86BF96BFA6BEB6BCB6BCC6BCD6BCE6B73
:100D2000CF6BD06BD16BD26BD36BD46BD96BDA6BCF
:100D3000F28EF28C1200926A806A040E936E816ABF
:100D4000946A826AF19EC26A0F0EC16E0101006947
:100D500001690269010E036F046F056F066F076F6B
:100D6000086F09690A690B690C690D6B010E0E6F3A
:100D70000F6F106B11691269136B010E146F156FF1
:100D8000166B1769936A0E0E0001F86F06EC00F0FF
:100D90007DEC06F0F56B0A0EF26FF36BF46BC70E89
:100DA000D56EF2A42CD013EC06F0FA5307E0E5B1AF
:100DB00003D0E581818202D0E5918192F2942CECFE
:100DC00006F00001E5A11BD0090EF2650AD0F26B16
:100DD000F34BF42B0C0EF36304D0F45102E1F36BEC
:100DE000F46B01EE00F0E950F351E926EF50F66F95
:100DF00001EE0CF0E950F351E926EF50F76F030EC6
:100E0000EF15F86F030EF863CCD7E5A1CAD7030E30
:100E1000F86F000EFA6FF50EF96F39EC06F0FF531C
:100E2000D8A4F22BBED70001E593E591E669080E40
:100E30000401016F026B050E036F080E056F800E33
:100E4000066F050E076F080E096F0A6B060E0B6F13
:100E5000080E0D6F800E0E6F060E0F6F080E116FCD
:100E6000126B070E136F080E156F800E166F070EAC
:100E7000176F0001CB6BCC6BCD6BCE6BCF6BD06B98
:100E8000D16BD26BD36BD46BD56BD66BD76BD86B66
:100E9000D96BDA6BDF6B040EE06F040EC76F030EC5
:100EA000C86F090EC96F040ECA6F140E906F030E3F
:100EB000916F4D0E926F936B690E946F956B630EED
:100EC000966F976B720E986F996B6F0E9A6F9B6B04
:100ED000630E9C6F9D6B680E9E6F9F6B690EA06F7B
:100EE000A16B700EA26FA36B300E606F030E616F6B
:100EF000500E626F636B690E646F656B630E666F95
:100F0000676B310E686F696B380E6A6F6B6B460EDC
:100F10006C6F6D6B320E6E6F6F6B350E706F716B29
:100F2000350E726F736B300E746F756B200E766FAB
:100F3000776B4A0E786F796B690E7A6F7B6B670EF1
:100F40007C6F7D6B670E7E6F7F6B6C0E806F816B2D
:100F5000650E826F836B200E846F856B4D0E866FDE
:100F6000876B6F0E886F896B750E8A6F8B6B730E34
:100F70008C6F8D6B650E8E6F8F6B050E056E010E7F
:100F8000066E090E076E020E086EA10E096E010EA6
:100F90000A6E090E0B6E010E0C6EA10E0D6E0E6A1E
:100FA000050E0F6E090E106E190E116E010E126EE7
:100FB000290E136E030E146E150E156E166A250E8D
:100FC000176E010E186E950E196E030E1A6E750EC1
:100FD0001B6E010E1C6E810E1D6E020E1E6E950E96
:100FE0001F6E010E206E750E216E050E226E810E93
:100FF000236E010E246E050E256E010E266E090E5F
:10100000276E300E286E090E296E310E2A6E150ECF
:101010002B6E810E2C6E250E2D6E7F0E2E6E750E94
:101020002F6E080E306E950E316E020E326E810EEE
:10103000336E060E346EC00E356EC00E366E120E56
:10104000A46F010EA56F100EA66F010EA76FA86BFF
:10105000A96BAA6B080EAB6FD80EAC6F040EAD6F08
:10106000090EAE6FAF6BB06B020EB16F010EB26FB7
:10107000020EB36FB46B010EB56F090E376E020E20
:10108000386E220E396E3A6A010E3B6E010E3C6ECE
:101090003D6AA00E3E6E320E3F6E090E406E040E8B
:1010A000416E426A436A010E446E030E456E010EA4
:1010B000466E020E476E486A090E496E210E4A6E50
:1010C000100E4B6E010E4C6E4D6A010E4E6E220ECE
:1010D0004F6E320E506E516A070E526E050E536EF1
:1010E000810E546E030E556E030E566E576A0A0E2D
:1010F000586E320EE36FE46B090EB66F210EB76FB8
:10110000100EB86F010EB96FBA6B010EBB6F220ED5
:10111000BC6F320EBD6FBE6B9BEF06F0EACF01F0E5
:10112000E9CF02F0F4CF03F0F3CF04F0A0AA26D069
:10113000A1AA24D068A404D069A402D053EC00F082
:1011400068A004D069A002D03AEC00F068A615D0DF
:1011500069A613D0050E0001EB630ED0EB6BE96BB3
:10116000EA516E6E010E696E000EEA6503D0020E42
:10117000EF6F02D0010EEF6F6896A19A04C0F3FFE3
:0E11800003C0F4FF02C0E9FF01C0EAFF110046
:020000040030CA
:0E000000300E3E1EFF0080FF0FC00FE00F40CD
:00000001FF
