:020000040000FA
:0400000043EF07F0D3
:08000800C2EF08F0FC530000F8
:1000100001E11200F90E00000000000000000000E5
:1000200000000000000000000000000000000000D0
:100030000000000000000000000000000000FF0FB2
:10004000D8A4E9D700000000000000000000000074
:1000500000000000000000000000000000000000A0
:100060000000000000000000000000000000FC2F65
:10007000D1D712000001EE6BEC6B6896689668961B
:100080006896080E0401016F880E006F080E046F59
:100090006E6A686A050E696E160E706E010E0001BA
:1000A000F46FED6F1200689469946D920001EC6B2F
:1000B0001200040106510101286F2C6B2D6B040105
:1000C00007510101296F2D5128272C5129232A6B13
:1000D0000001F55101012A611BD00001E051DE5DF4
:1000E00002E1DF51DD5D14E2DE51EA6EDD51E96EC1
:1000F000EF5001012B6F2951EA6E28512A25E96E34
:100100002B51EF6E0001DD4BDE2B01012A2BE0D7D6
:100110000001F55101012A6102D00001F06B0101DB
:100120002A510401056F400E0417400E041B880E6F
:1001300004131200689A1200698469986D82010E96
:100140000001EC6F12006C500001F16FF131F26FA1
:10015000F233F2331F0EF217D890F237040EF11576
:100160000101206F216B20510001F22702E3010100
:10017000212B010121330001F23301012133000160
:10018000F233E251EA6EE151E96EF2510101206F62
:1001900020372037FC0E2015E926EF50596E00015C
:1001A000E151E96EF2510101206F20372037FC0E3A
:1001B0002015E926EC505A6E0001E151E96EF2512A
:1001C0000101206F20372037FC0E2015E926020E92
:1001D000E926EE505B6EEF505C6E68963C0E59144B
:1001E0001D6F240E1D630ED0040E0001F16306D0B6
:1001F000060EF063120059EC00F012000C0EF163D1
:10020000120012003C0E59141E6F040E1E6308D01B
:100210000001F153D8B41200080EF163120012006D
:100220003C0E59141F6F340E1F631200040102515B
:100230000001E36F0101236B246B040103510001F2
:10024000E46F010124510001E32701012351000162
:10025000E423E451EA6EE351E96EEF50BF6FEC50D6
:10026000C06FE906020EE926EE50C16FEF50C26F73
:10027000E351E96E040EE926EE50C36FEF50C46FF0
:10028000E351E96E060EE926EE50C56FEF50C66FDA
:100290006A90080E0401016F210E0001BF6304D0B3
:1002A000C80E0401006F03D0880E0401006F080E11
:1002B000046F6D980001F06BBF5314E0BF05D8B414
:1002C00071D0020EBF6301D090D0800EBF6301D009
:1002D00020D1810EBF6301D0BED2820EBF6386EFF4
:1002E00005F0C4D3C0050CE0030EC06301D017D0E5
:1002F000050EC06301D027D0090EC06351D035D0A0
:10030000010EC1630AD0C25108E1ED930401056BEF
:10031000C80E046F0001F06B120070801200C15112
:100320000101206F216B010E20630BD0215109E1E7
:100330000001ED830401056BC80E046F0001F06B32
:10034000120070801200C151EF6F800EEF610BD070
:100350000401056BC80E046F0001F06B050EF06F11
:10036000090E696E120070801200010EC165C2672D
:1003700002D0C151EE6FC15305E1C25303E1020E39
:10038000F46F02D0030EF46F0401056BC80E046F06
:100390000001F06B480E04010C6F1E0E716E12000E
:1003A000708012000B0EC06301D006D0C0051BE0A8
:1003B000030EC06318D017D0030EF46312D0C351DC
:1003C00001011A6F00EE5DF0E9501A51E9260001B3
:1003D000C151EF6E0401056BC80E046F0001F06B94
:1003E00012007080120070801200C00504E0030E3D
:1003F000C0638DD043D00F0EFF6F700EFE6F0F0ED7
:10040000C3150101196F0001C15336E1C25334E134
:10041000030EF4150101226F020E226311D019534D
:100420000FE10001FF51EA6EFE5101011925E96E4D
:10043000EF900401056BC80E046F0001F06B120011
:10044000030E0001F4150101226F030E226312D086
:10045000030E19610FD00001FF51EA6EFE51010138
:100460001925E96EEF900401056BC80E046F0001B9
:10047000F06B120070801200708012000F0E0101EC
:10048000226F700E0001FE6F010122510001FF6F0B
:100490000F0EC3150101196F0001C15336E1C2539C
:1004A00034E1030EF4150101226F020E226311D014
:1004B00019530FE10001FF51EA6EFE5101011925A8
:1004C000E96EEF800401056BC80E046F0001F06B4C
:1004D0001200030E0001F4150101226F030E2263C6
:1004E00012D0030E19610FD00001FF51EA6EFE51C8
:1004F00001011925E96EEF800401056BC80E046F38
:100500000001F06B12007080120070801200708089
:100510001200080EC06301D008D0060EC06301D0DF
:1005200028D0C053D8B474D1120004010651000180
:10053000FC6F0101236B246B040107510001FD6F67
:10054000010124510001FC27010123510001FD2379
:10055000FD51EA6EFC51E96E0101226B2251E92640
:100560000001EE51EF6E010E0401056FC80E046F1D
:100570001200C25101011B6F1B053EE1060E000176
:10058000F06F000EDE6FA40EDD6F000E0101246F10
:10059000A40E0001DF6FE06B120EDF270101245172
:1005A0000001E023DD51DF5D0101226F0001DE511A
:1005B000E0590101236F23510001C65D04E10101EF
:1005C00022510001C55D13E2C551DD250101246FF3
:1005D0000001C6510101256F0001DE5101012523F3
:1005E00024510001DF6F010125510001E06F080E69
:1005F000F56F59EC00F01200020E1B633ED0060EA0
:100600000001F06F000EDE6F370EDD6F000E01018E
:10061000246F370E0001DF6FE06B220EDF27010130
:1006200024510001E023DD51DF5D0101226F000153
:10063000DE51E0590101236F23510001C65D04E141
:10064000010122510001C55D13E2C551DD25010103
:10065000246F0001C6510101256F0001DE51010127
:10066000252324510001DF6F010125510001E06FB6
:10067000080EF56F59EC00F01200030E1B63C4D096
:100680000001C15101011C6F060E0001F06F080E40
:10069000F56F01011C5306E01C053EE0020E1C63D1
:1006A000AFD074D0000E0001DE6FC70EDD6F000EFC
:1006B0000101286FC70E0001DF6FE06BC751DF2714
:1006C000010128510001E023DD51DF5D0101226FAE
:1006D0000001DE51E0590101236F23510001C65D85
:1006E00004E1010122510001C55D13E2C551DD2580
:1006F0000101286F0001C6510101296F0001DE517F
:100700000101292328510001DF6F01012951000156
:10071000E06F59EC00F01200000E0001DE6F900E49
:10072000DD6F000E0101286F900E0001DF6FE06B9E
:100730009051DF27010128510001E023DD51DF5DE9
:100740000101246F0001DE51E0590101256F25519F
:100750000001C65D04E1010124510001C55D13E201
:10076000C551DD250101286F0001C6510101296F26
:100770000001DE510101292328510001DF6F010131
:1007800029510001E06F59EC00F01200000E000149
:10079000DE6F600EDD6F000E0101286F600E00013C
:1007A000DF6FE06B6051DF27010128510001E0237A
:1007B000DD51DF5D0101266F0001DE51E0590101CD
:1007C000276F27510001C65D04E101012651000198
:1007D000C55D13E2C551DD250101286F0001C65139
:1007E0000101296F0001DE51010129232851000177
:1007F000DF6F010129510001E06F59EC00F0120098
:10080000CC0E0401046F1200CC0E0401046F120020
:10081000E251EA6EE151E96E040EE926020EE92684
:10082000EE50FC6FEF50FD6FFD51EA6EFC51E96E2A
:100830000101226B2251E9260001ED51EF6EFC51BE
:10084000E96E010EE926000EEF6E020E0401056F3F
:10085000C80E046F12000A0EC06301D006D0C05348
:1008600039E0060EC063120091D0C35101011A6F26
:10087000030E0001F4632CD0010E01011A6128D08F
:100880000001E251EA6EE151E96E040EE926020E22
:10089000E926EE50FC6FEF50FD6F00EE5DF0E95081
:1008A00001011A51236F2351E926EF50246F0001F3
:1008B000FD51EA6EFC51E96E0101226B2251E926DD
:1008C0002451EF6E010E0401056FC80E046F120073
:1008D00070801200E251EA6EE151E96E040EE926E1
:1008E000020EE926EE50FC6FEF50FD6FFD51EA6EEF
:1008F000FC51E96E010EE926000EEF6E020E0401B6
:10090000056F0001C35101011A6F020E0001F4636B
:100910001BD001011A5318E100EE5DF0E9501A51A5
:10092000236F2351E926EF50246F0001FD51EA6E39
:10093000FC51E96E0101226B2251E9262451EF6E30
:10094000C80E0401046F1200030E0001F4631CD0F2
:10095000010E01011A6118D000EE5DF0E9501A5144
:10096000236F2351E926EF50246F0001FD51EA6EF9
:10097000FC51E96E0101226B2251E9262451EF6EF0
:10098000C80E0401046F120070801200C2510101F0
:10099000186F220E186332D0060E0001F06FC35399
:1009A000D8B4C453000EDE6F050EDD6FE06B320E5F
:1009B000DD25DF6FDE51E023080EF56F320EC55DD9
:1009C00015E2C66713D0C551DD250101226F000174
:1009D000C6510101236F0001DE5101012323225181
:1009E0000001DF6F010123510001E06F59EC00F0BD
:1009F000010E0001C3631200C4511200210E1863DE
:100A000033D0060E0001F06FC35328E1C45326E132
:100A1000000EDE6FB60EDD6FE06B090EDD25DF6FB9
:100A2000DE51E023080EF56F090EC55D15E2C667BD
:100A300013D0C551DD250101226F0001C65101010E
:100A4000236F0001DE510101232322510001DF6FDA
:100A5000010123510001E06F59EC00F0010E00018B
:100A6000C3631200C451120070801200C053D8A496
:100A700012000F0E0101226F700E0001FE6F0101C6
:100A800022510001FF6F0F0EC3150101196F040100
:100A900006510101226F256B266B040107510101EC
:100AA000236F265122272551232322510001FC6F59
:100AB000010123510001FD6FFD51EA6EFC51E96E09
:100AC000010EE926000EEF6E020E0401056F030E03
:100AD0000101196119D00001FF51EA6EFE510101B7
:100AE0001925E96E010EEF14236F0001FD51EA6E26
:100AF000FC51E96E0101226B2251E9262351EF6E70
:100B0000C80E0401046F120070801200BFAB120007
:100B1000040106510101226F256B266B0401075168
:100B20000101236F26512227255123232251000141
:100B3000FC6F010123510001FD6F210EBF6301D045
:100B400014D0A10EBF6301D029D0220EBF6301D003
:100B500045D0230EBF6301D043D0A20EBF6301D0A6
:100B600041D0A30EBF6342D03FD00B0EC06301D073
:100B700008D0090EC06301D012000A0EC0630CD069
:100B800009D0C151F36F0401056BC80E046F000159
:100B9000F06B12007080120070801200030EC063B0
:100BA00001D007D0C005D8B41200020EC06314D023
:100BB00011D0FD51EA6EFC51E96E0101226B225108
:100BC000E9260001F351EF6E010E0401056FC80E16
:100BD000046F12007080120070801200708012008A
:100BE00070801200708012007080120070801200FD
:100BF0006AA005D06BA003D00001CD4BCE2B6AA21A
:100C000005D06BA203D00001CF4BD02B6AA405D036
:100C10006BA403D00001D14BD22B6AA605D06BA6E2
:100C200003D00001D34BD42B6AA805D06BA803D006
:100C30000001D54BD62B6AAE05D06BAE03D00001B8
:100C4000DB4BDC2B6A6A68921200E96BEA6BCB6BB8
:100C5000CC6BFCB1CD80FCA1CD901200D8900001EE
:100C6000E83781A4E881C70EE815FC6F070EFC6326
:100C700004D0E869010EFD6F1200FD6B120068B62A
:100C8000A3EC00F068BA9AEC00F068B2F8EC05F05A
:100C900069B89CEC00F01200800E04010C150101F3
:100CA0001A6F1A5338E10001FC5104010D6F0E5107
:100CB0000101186F1C6B1D6B04010F510101196FAD
:100CC0001D5118271C5119230001FF6BFC51FF61B6
:100CD00017D0FE51EA6EFD51E96EFF5101011B6F05
:100CE0001B51E926EF501C6F1951EA6E1851000193
:100CF000FF25E96E01011C51EF6E0001FF2BE6D7C5
:100D0000400E04010C17400E0C1B880E0C1B010E2C
:100D100001011B6F12001B6B12006F846F886980CA
:100D2000A08A6D8C6D9C6D860001EE6B010EED6FDF
:100D3000FC6BFD6BFE6BF06BCD6BCE6BCF6BD06B3A
:100D4000D16BD26BD36BD46BD56BD66BDB6BDC6B9F
:100D50001200926A806A050E936E816A946A826AB2
:100D6000C26A0101006901690269010E036F046F23
:100D7000056F066F076F086F09690A690B690C69CF
:100D80000D6B010E0E6F0F6F106B11691269136BF3
:100D9000010E146F156F166B17690E0E0001FC6FB4
:100DA00006EC00F08DEC06F0F96B0A0EF66FF76BAF
:100DB000F86BD59AD596F28ACD8ACD989D80F28E21
:100DC000F28C0001EBA337D02EEC06F0FD530FE0C0
:100DD000E7B107D0FC8125EC06F0E781E78381824B
:100DE00006D0FC9125EC06F0E791E79381923FEC69
:100DF00006F00001E7A11ED0E7A31CD0090EF6659E
:100E00000BD0F66BF74BF82B0C0EF76305D0F851AF
:100E100003E1F76BF86BE79301EE00F0E950F7514F
:100E2000E926EF50FA6F01EE0CF0E950F751E92690
:100E3000EF50FB6FEB93EBA50FD0780EEA6101D07A
:100E400009D0FC9125EC06F0E7A105D0E791E793E6
:100E5000819201D0E783EB95030EF415FC6F030E2E
:100E6000FC63AFD7E7A1ADD7E7A3ABD7030EFC6F09
:100E7000000EFE6FF90EFD6F4CEC06F01B5302E006
:100E80000001F62B9ED70001E791E793E86BCB6B4F
:100E9000CC6BE96BEA6B080E0401016F026B050E67
:100EA000036F080E056F800E066F050E076F080EA4
:100EB000096F0A6B060E0B6F080E0D6F800E0E6F1A
:100EC000060E0F6F080E116F126B070E136F080ED0
:100ED000156F800E166F070E176F0001CD6BCE6B6E
:100EE000CF6BD06BD16BD26BD36BD46BD56BD66B16
:100EF000D76BD86BD96BDA6BDB6BDC6BE16B040EF9
:100F0000E26F040EC76F030EC86F090EC96F040E9F
:100F1000CA6F140E906F030E916F4D0E926F936B0C
:100F2000690E946F956B630E966F976B720E986F48
:100F3000996B6F0E9A6F9B6B630E9C6F9D6B680E27
:100F40009E6F9F6B690EA06FA16B700EA26FA36B5B
:100F5000300E606F030E616F500E626F636B490E4F
:100F6000646F656B430E666F676B310E686F696BFC
:100F7000380E6A6F6B6B460E6C6F6D6B320E6E6F58
:100F80006F6B350E706F716B350E726F736B300E49
:100F9000746F756B200E766F776B4A0E786F796B76
:100FA000690E7A6F7B6B670E7C6F7D6B670E7E6F51
:100FB0007F6B6C0E806F816B650E826F836B200E72
:100FC000846F856B4D0E866F876B6F0E886F896B94
:100FD000750E8A6F8B6B730E8C6F8D6B650E8E6FBB
:100FE0008F6B050E056E010E066E090E076E020E62
:100FF000086EA10E096E010E0A6E090E0B6E010E2F
:101000000C6EA10E0D6E0E6A050E0F6E090E106E9F
:10101000190E116E010E126E290E136E030E146E50
:10102000150E156E166A250E176E010E186E950EAA
:10103000196E030E1A6E750E1B6E010E1C6E810E5C
:101040001D6E020E1E6E950E1F6E010E206E750E29
:10105000216E050E226E810E236E010E246E050E8A
:10106000256E010E266E090E276E300E286E090EB3
:10107000296E310E2A6E150E2B6E810E2C6E250EEA
:101080002D6E7F0E2E6E750E2F6E080E306E950E25
:10109000316E020E326E810E336E060E346EC00E4D
:1010A000356EC00E366E120EA46F010EA56F100EB7
:1010B000A66F010EA76FA86BA96BAA6B080EAB6F8A
:1010C000D80EAC6F040EAD6F090EAE6FAF6BB06B88
:1010D000020EB16F010EB26F020EB36FB46B010E50
:1010E000B56F090E376E020E386E220E396E3A6AEF
:1010F000010E3B6E010E3C6E3D6AA00E3E6E320E3E
:101100003F6E090E406E040E416E426A436A010E44
:10111000446E030E456E010E466E020E476E486A1F
:10112000090E496E210E4A6E100E4B6E010E4C6E6A
:101130004D6A010E4E6E220E4F6E320E506E516A87
:10114000070E526E050E536E810E546E030E556ED1
:10115000030E566E576A0A0E586E320EE56FE66B36
:10116000090EB66F210EB76F100EB86F010EB96F72
:10117000BA6B010EBB6F220EBC6F320EBD6FBE6B21
:10118000A9EF06F0EACF01F0E9CF02F0F4CF03F0C7
:10119000F3CF04F0A1AA23D068A403D069B453EC20
:1011A00000F068A004D069A002D03AEC00F068A674
:1011B00015D069A613D0050E0001F0630ED0F06BB8
:1011C000EE6BEF516E6E010E696E000EEF6503D08F
:1011D000020EF46F02D0010EF46F6896A19AF2A489
:1011E00003D00001EB83F2949EA019D0AB0E000156
:1011F000CB270A0ECC23F40ECC5D04E1240ECB6188
:1012000001D00CD00BE3240ECB5FF40ECC5BE92BAA
:101210003C0EE96303D0EA2BE96BEB859E9004C09A
:10122000F3FF03C0F4FF02C0E9FF01C0EAFF1100B1
:020000040030CA
:0E000000300E3E1EFF0080FF0FC00FE00F40CD
:00000001FF
