:020000040000FA
:0400000099EF09F07B
:08000800D7EF0AF0EB530000F2
:1000100001E11200F90E00000000000000000000E5
:1000200000000000000000000000000000000000D0
:100030000000000000000000000000000000FF0FB2
:10004000D8A4E9D700000000000000000000000074
:1000500000000000000000000000000000000000A0
:100060000000000000000000000000000000EB2F76
:10007000D1D712000001D551D66301D01200D52985
:100080000201446FFE0E446301D0446B44510001F1
:10009000D66301D09D9801EE00F0E950D551E926D4
:1000A000EF50AD6E020144510001D56F1200000106
:1000B000D551D66306D09EA804D002014151AD6E41
:1000C0001200D6290201426FFE0E426301D0426B3C
:1000D0000001D5510201426306D0F2BEF9D79EB8A5
:1000E0003AEC00F0F5D74391F2BE4381F29EF2BEA6
:1000F000FDD701EE00F0E9500001D651E9260201DA
:100100004151EF6E42510001D66F9D88020143B10B
:10011000F28E43A1F29E1200406B3F51EA6E3E51B7
:100120004025E96EEF52D8B412003F51EA6E3E51BD
:100130004025E96EEF50416F57EC00F0402BEDD7B2
:10014000376B386B336B346B356B100E3515366F80
:1001500036671200D890333734372C372D3737377E
:1001600038372E51375D2F513863385D05E32E51F6
:10017000375F2F51385B3381352BE7D7306B316BCD
:10018000346B356B326B100E3215336F33671200E0
:10019000D890343735372C372D37303731372E510B
:1001A000305D2F513163315D05E32E51305F2F51AA
:1001B000315B3481322BE7D7040104AF22D0200E0B
:1001C00002011B6F226F266F2A6F210E1C6F296F91
:1001D000270E206F640E1D6F690E276F6E0E1F6F46
:1001E000256F6F0E1E6F236F740E216F286F770EB1
:1001F000246F2B6B020E3F6F1B0E3E6F8CEC00F0DA
:10020000120002011A6B0001DC5102011A6125D0B3
:100210000001C751CB5D02E1C651CA5D1EE2C95162
:10022000CB5D02E1C851CA5D18E2CD51EA6ECC51F6
:10023000E96EEF5002011B6F0001CF51EA6ECE5103
:1002400002011A25E96E1B51EF6E0001CC4BCD2B3C
:10025000CA4BCB2B02011A2BD6D70001DC5102016D
:100260001A6110D00001C851CA6304D0C951CB63D0
:1002700001D006D0C651CA6305D0C751CB6302D0A6
:10028000050EDB6F02011A510401056F050E076FA1
:10029000080E066F400E041B049B04990487049506
:1002A00004930491048F1200200E0201416F57EC59
:1002B00000F01200050E2B6F2A6B2B0723512C6FB9
:1002C00024512D6F0A0E2E6F2F6BA0EC00F03751CA
:1002D000306F3851316F3051300F326F02EE25F0F0
:1002E000E9502B51E9263251EF6E23512C6F2451E6
:1002F0002D6F0A0E2E6F2F6BBEEC00F03451236F62
:100300003551246F000E23652467D7D702EE25F000
:10031000E9502B51E926EF52D8B4120002EE25F035
:10032000E9502B51E926EF50416F57EC00F02B2B91
:10033000EDD704010485048F0085008F1200080E9C
:100340000001DC6FCA6BCB6B010EC66FC76BC86B4D
:10035000C96B020119510001DE6F000ECD6FDE0E78
:10036000CC6F040ED16F040ED06F050ECF6F080E48
:10037000CE6F0401049DDCEC00F01200080E0001B9
:10038000DC6F040ED16F040ED06F050ECF6F080E18
:10039000CE6FCA6BCB6BC66BC76BC86BC96BCC6BB4
:1003A000CD6B0401049DDCEC00F012001F6B206B90
:1003B000190510E0020E196301D02BD0030E19634A
:1003C00001D047D0060E196301D086D0220E1963E2
:1003D000DAD0B2D0200E236F2A6F440E246F630E42
:1003E000286F650E256F296F690E276F760E266FB1
:1003F0002B6B020E3F6F230E3E6F8CEC00F0000E55
:10040000236F8C0E1F6F2351206F120E216F226BF2
:10041000CDD0200E236F2A6F430E246F660E276FF8
:10042000670E296F690E286F6E0E266F6F0E256F8F
:100430002B6B020E3F6F230E3E6F8CEC00F0000E14
:10044000236F370E1F6F2351206F220E216F226BF7
:10045000ADD0200E236F2B6F3A0E2A6F530E246FF0
:10046000670E296F690E276F6E0E286F720E266F4A
:10047000740E256F2C6B020E3F6F230E3E6F8CECBB
:1004800000F01A51236F246B5AEC01F01A5306E066
:100490001A050EE0020E1A6389D014D0040E216FE3
:1004A000226B000E236FBE0E1F6F2351206F7ED074
:1004B000180E216F226B000E236F600E1F6F2351E9
:1004C000206F74D0140E216F226B000E236F780EF4
:1004D0001F6F2351206F6AD0200E236F2A6F2F6F5A
:1004E0003B6F280E306F290E3A6F440E246F510E69
:1004F0002B6F610E2D6F346F630E286F640E366F95
:10050000396F650E256F296F386F680E336F690E6E
:10051000276F6C0E2E6F376F6E0E326F356F750E44
:100520002C6F316F760E266F3C6B020E3F6F230EE1
:100530003E6F8CEC00F03AD0200E236F276F2E6FA9
:10054000440E266F480E246F490E256F520E286FF9
:10055000650E296F6F0E2B6F700E2A6F720E2C6F47
:10056000740E2D6F2F6B020E3F6F230E3E6F8CECBF
:1005700000F0320E216F226B000E236F050E1F6FED
:100580002351206F13D03F0E236F246F200E256F51
:10059000266B020E3F6F230E3E6F8CEC00F019515C
:1005A000236F246B5AEC01F054EC01F01C51EA6EFD
:1005B0001B51E96EE92A1F51236F2051EF6EE906A6
:1005C0002351EF6E1E51EA6E1D51E96EE92A215149
:1005D000236F2251EF6EE9062351EF6E1200200EB9
:1005E00002011F6F236F430E196F650E206F660E99
:1005F0001C6F670E1E6F690E1D6F6E0E1B6F6F0EE8
:100600001A6F700E216F730E226F246B020E3F6FF4
:10061000190E3E6F8CEC00F07188719471827186B6
:1006200004010C8D0C9B0C990C970C950C930C9160
:100630000C9F120019390F0B1A6F0A0E1A6104D0A1
:100640001A51300F416F03D01A51370F416F57ECD9
:1006500000F00F0E19151A6F0A0E1A6104D01A5104
:10066000300F416F03D01A51370F416F57EC00F034
:100670001200500E0201416F57EC00F0080E040109
:10068000016F026B050E036F008D009B00990087C0
:10069000009500930091008F1200060E126301D0A6
:1006A00010D0050E126301D076D0090E126301D06E
:1006B00094D00A0E126301D0ABD01253D8B4BED07E
:1006C000D0D0200E196F1D6F3A0E1C6F440E1B6F99
:1006D000470E1A6F1E6B020E3F6F190E3E6F8CECA9
:1006E00000F014510101FE6F020113510101FF6F6F
:1006F000FE510201236F246B5AEC01F00101FE51FF
:100700000201196F0101FF5102011A6F000E1C6FE7
:10071000CC0E1B6F000E1E6FC60E1D6FD6EC01F0C7
:100720000001CC5302E1CD531BE0030EDB6F02014D
:1007300017510001C86F020118510001C96FCA6B3F
:10074000CB6B080EDC6F040ED16F040ED06F080E59
:10075000CE6F050ECF6F0401049DDCEC00F012009B
:10076000200E0201196F216F3C0E1A6F3E0E206F92
:10077000610E1D6F6C0E1E6F1F6F730E1B6F740E5C
:100780001C6F226B020E3F6F190E3E6F8CEC00F057
:1007900099EC01F0120013510001DA6F200E0201F2
:1007A000196F530E1A6F410E1B6F3A0E1C6F1D6BA3
:1007B000020E3F6F190E3E6F8CEC00F00001DA5113
:1007C0000201196F1AEC03F0010E0001DD6FBEEC9F
:1007D00001F0060E0001DB6F1200200E196F1D6F75
:1007E0003A0E1C6F430E1B6F530E1A6F1E6B020ED8
:1007F0003F6F190E3E6F8CEC00F0060E0001DB6FB0
:10080000BEEC01F0030E0001D96FEFEC02F0120014
:10081000200E196F1C6F470E1A6F490E1B6F1D6B50
:10082000020E3F6F190E3E6F8CEC00F0030E0001BC
:10083000DB6F010E0201196F9FEC01F0200E020127
:10084000196F1C6F470E1A6F530E1B6F1D6B020E34
:100850003F6F190E3E6F8CEC00F0196B9FEC01F0AE
:100860001200200E196F1E6F3F0E1A6F1B6F520E73
:100870001D6F530E1C6F1F6B020E3F6F190E3E6FE4
:100880008CEC00F01251236F246B5AEC01F0120033
:1008900012001200200E1E6F276F3A0E266F430EB5
:1008A000196F610E1B6F650E206F236F6C0E1A6F30
:1008B000710E216F720E1F6F730E1C6F1D6F246FF0
:1008C000740E256F750E226F286B020E3F6F190E86
:1008D0003E6F8CEC00F01251236F246B5AEC01F048
:1008E0001205D8B41200020E126301D01200030EDA
:1008F000126301D01200090E126301D012000A0E19
:10090000126301D004D00B0E126312001200200EED
:10091000196F226F530E1A6F5F0E1D6F640E1F6FDB
:10092000650E1B6F216F690E1E6F6C0E206F740EAB
:100930001C6F236B020E3F6F190E3E6F8CEC00F0A4
:1009400099EC01F01200FD510201116F0001FE51FE
:100950000201126F0101FE510201136F0101FF51EB
:100960000201146F000E0001FF6514D00201145142
:10097000EA6E1351E96E134B142BEF50156F1251A1
:10098000EA6E1151E96E114B122B1551EF6E0001F9
:10099000FF07E8D7FD510201156F0001FE5102016A
:1009A000166F1200200E0201116F196F3A0E136FAD
:1009B000530E146F550E126F610E166F6C0E176F7B
:1009C000186F740E156F1A6B020E3F6F110E3E6F8B
:1009D0008CEC00F012000001DA6BDB6BDD6B6896CB
:1009E000689668966896080E0401016F026B050E02
:1009F000036F009D009B0099009700950093009164
:100A0000008F080E056F066F050E076F049D049B8F
:100A10000499049504930491049F0A0E0001F86F51
:100A2000520EF96F200EFA6FFB6B000E02013F6F42
:100A3000F80E3E6F8CEC00F06850196F1AEC03F062
:100A400012006C300001F86FF833F8331F0EF817FE
:100A50006CA41AD00A0EFA6F440EFB6F490EFC6F9D
:100A6000200EFD6FFE6B000E02013F6FFA0E3E6F0F
:100A70008CEC00F0040104310001F96FF9333F0EF2
:100A8000F9170F0EF9171AD0040100310001FA6F9F
:100A9000FA333F0EFA170F0EFA15F96F0A0EFA6FB6
:100AA000440EFB6F4F0EFC6F200EFD6FFE6B000EB1
:100AB00002013F6FFA0E3E6F8CEC00F00001F8531C
:100AC0000DE0450E0201416F57EC00F00001F851B6
:100AD0000201196F1AEC03F054EC01F00001F85315
:100AE000D8A497D20D0EF9632ED1000EFE6F9E0E84
:100AF000FD6F050E0101FF6F000EFE6F080E000175
:100B0000FF6FA3EC04F039EC03F0200E0201116F2B
:100B1000176F530E126F650E136F700E166F740EF3
:100B2000146F750E156F186B020E3F6F110E3E6F2E
:100B30008CEC00F000019E510201196F1AEC03F0D9
:100B4000200E416F57EC00F000019EAF22D0200E26
:100B50000201116F166F1F6F3D0E1C6F440E126F56
:100B6000490E1D6F4E0E1E6F610E136F156F196FBC
:100B7000650E1B6F670E1A6F730E176F740E146F6E
:100B8000186F206B020E3F6F110E3E6F8CEC00F061
:100B900028D0200E0201116F166F236F2F0E206FC9
:100BA0003D0E1C6F440E126F4E0E216F4F0E1D6FC7
:100BB000226F540E1F6F550E1E6F610E136F156F4F
:100BC000196F650E1B6F670E1A6F730E176F740E19
:100BD000146F186F246B020E3F6F110E3E6F8CEC7A
:100BE00000F0400E00019E15FA6FFA6749D0200E02
:100BF0009E15FB6FFB6744D01F0E9E15FD6FFD53C6
:100C00000BE01F0E9E15FE6FFE0506E01F0E9E15E3
:100C1000FF6F030EFF6300D0200E0201116F156FEE
:100C2000640E146F730E126F740E136F166B020E38
:100C30003F6F110E3E6F8CEC00F00001A5510201D8
:100C4000186F0001A4510201176F0001A3510201A6
:100C5000166F0001A2510201156F0001A15102019E
:100C6000146F0001A0510201136F00019F51020196
:100C7000126F00019E510201116F4DEC03F061D023
:100C8000400E9E15FC6FFC6739D09EAB37D0200E0E
:100C90000201116F176F610E146F630E126F6C0EED
:100CA000136F730E156F166F186B020E3F6F110ED8
:100CB0003E6F8CEC00F00001A5510201186F00019D
:100CC000A4510201176F0001A3510201166F000128
:100CD000A2510201156F0001A1510201146F000120
:100CE000A0510201136F00019F510201126F000118
:100CF0009E510201116F4AEC04F023D0200E020134
:100D0000116F176F3D0E196F3F0E126F136F650E47
:100D1000156F710E166F720E146F740E186F1A6BBA
:100D2000020E3F6F110E3E6F8CEC00F000019E51E1
:100D30000201236F246B5AEC01F0200E416F57EC37
:100D400000F06D981200090EF9639ED0200EFA6F24
:100D5000FD6F490EFB6F4E0EFC6FFE6B000E020125
:100D60003F6FFA0E3E6F8CEC00F0030E0001DB6368
:100D700003D0DCEC00F01200060EDB631AD0DB6B54
:100D8000DD0505E1020ED96FDA516E6EDD6B200EC6
:100D90000201116F2D0E126F136F146F156F0A0E73
:100DA000166F176B020E3F6F110E3E6F8CEC00F04A
:100DB0001200050EDB6302D000001200040EDB639C
:100DC00045D0200E0201116F166F1B6F206F266F2A
:100DD0002C6F2E6F336F366F3C6F2D0E2D6F3F0EC5
:100DE0003B6F610E196F1D6F1F6F236F296F630EAD
:100DF000126F276F376F640E1A6F1C6F650E186FB6
:100E0000256F326F3A6F670E246F6C0E156F286F67
:100E10006D0E2F6F396F6F0E306F356F386F720E2A
:100E2000146F176F316F730E216F2A6F2B6F740E53
:100E3000136F1E6F226F346F3D6B020E3F6F110EEA
:100E40003E6F8CEC00F049EC04F01200200E020121
:100E5000116F146F3D0E176F3F0E126F136F630EFD
:100E6000156F6D0E166F186B020E3F6F110E3E6FF1
:100E70008CEC00F00001DB510201236F246B5AEC73
:100E800001F054EC01F01200020EF96349D02A0E71
:100E90000201116F126F136F146F410E156F0A0E5E
:100EA000166F176B020E3F6F110E3E6F8CEC00F049
:100EB000030E0001DB6312D0200EFA6FFD6F260EC9
:100EC000FB6F320EFC6FFE6B000E02013F6FFA0EDD
:100ED0003E6F8CEC00F0DCEC00F01200040EDB63E3
:100EE00003D049EC04F01200060EDB631200200E62
:100EF0000201116F146F196F650E166F6E0E176F6A
:100F0000730E126F156F740E136F186F1A6B020E3B
:100F10003F6F110E3E6F8CEC00F00001DB6B120096
:100F2000F90557E1050EDB6314D0200E0201116FA5
:100F30002D0E126F136F146F156F0A0E166F176B4D
:100F4000020E3F6F110E3E6F8CEC00F00001DB6B68
:100F50003DD0020EDB630CD0050EFB6F000EFA6F66
:100F6000040101510001FC6FFD6B48EC04F02ED030
:100F7000030EDB6302D0DB6B29D0200E0201166F5B
:100F80001E6F3F0E116F126F4F0E1B6F540E1D6FB1
:100F9000550E1C6F5F0E1A6F640E196F690E186F75
:100FA0006B0E156F6E0E146F700E176F750E136F3C
:100FB0001F6B020E3F6F110E3E6F8CEC00F00001B4
:100FC000DB510201236F246B5AEC01F039EC03F082
:100FD0001200200E0201116F176F196F3D0E186F6E
:100FE000440E166F490E156F4B0E136F500E146F93
:100FF000550E126F1A6B020E3F6F110E3E6F8CEC86
:1010000000F00001F9510201236F246B5AEC01F04A
:1010100012006CA402D00000120000EEAAF0E95009
:10102000F851FC6FD890FC35E926EE50FA6FEF507E
:10103000FB6F00EEBAF0E950F851FC6FD890FC3726
:10104000FC51E926EE50FD6FEF50FE6FFB51EA6E4A
:10105000FA29E96EFD51EF6EE906EF9CEF9AEF98E1
:10106000EF96EF94EF92EF90EF8E12000001C24BDB
:10107000C32B1200A1AA1200A19A68A603D021ECEA
:1010800005F0689668A003D0EBEC04F0689068AABD
:101090001200D2EC04F0689A120036EC08F012004C
:1010A000698A69866980A08A12000001C551D76EDD
:1010B000C451D66ED58E1200D59EEBA102D0D58C30
:1010C00001D0D59CD59AEC2902E1D58605D0D596DC
:1010D000F80ED516EC51D512ED51C46FEE51C56F17
:1010E000F28A120000EEAEF0E950EC51F66FD890A3
:1010F000F635E926EE50F46FEF50F56F00EEA6F0EE
:10110000E950EC51F66FD890F635E926EE50F26FC3
:10111000EF50F36FF351EA6EF251E96EEFAE22D069
:10112000200E0201006F076F0B6F0F6F210E016F12
:101130000E6F270E056F640E026F690E0C6F6E0E38
:10114000046F0A6F6F0E036F086F740E066F0D6FDA
:10115000770E096F106B020E3F6F000E3E6F8CEC26
:1011600000F01200F16BEF51F16113D0EE51EA6E15
:10117000ED51E96EF151F66FF651E926EF50F76F38
:10118000F551EA6EF451F125E96EF751EF6EF12B4E
:10119000EAD7F351EA6EF229E96EF151EF6EE906F2
:1011A000020EE926E92AF451F66FF551EF6EE906D1
:1011B000F651EF6EF0A105D0F351EA6EF251E96EEF
:1011C000EF9CF351EA6EF251E96E400EEF1AEF9A7E
:1011D000EF98EF86EF94EF92EF90EF8E1200000100
:1011E000D951EB6F12000001EB91F2BEEB81F29E40
:1011F000F2BEFDD7C251EC6FC351ED6FEBB1F28E71
:10120000EBA1F29EEC51EE6FED51EF6F1200EB513E
:10121000ED5DEC51EE63EE5D07E3EB51ED5DEF6FDD
:10122000EC51EE59F06F1200EB51FF08F26FFF0E18
:10123000EC55F16FED51F227EE51F36FF151F323BD
:10124000F22BD8B4F32BF251EF6FF351F06F120081
:10125000926A806A010E936E816A946A826AC26A97
:101260000F0EC16E6D86F19E0001EB91EC698A0E46
:10127000ED6FE80EEE6F5CEC08F050EC08F0F28CCD
:10128000F28E55EC08F0120028EC09F0E26BE36BEB
:10129000E66BE76BF3EC08F0EE51E46FEF51E56FAE
:1012A000E251EB6FE351EC6FE451ED6FE551EE6FFE
:1012B00007EC09F0030EEF65F06701D028D0E45188
:1012C000E26FE551E36FE62BE72B050EE7631FD0D6
:1012D000E76BEFEC08F0030EEB6316D0E86BE6511A
:1012E0000008E96FEA6BE951E811EB6FEA51EB1185
:1012F0000BE0010EEC6F000EEE6FE80EED6F030ECB
:10130000EF6FF09172EC08F00001E66BE76BD2A191
:1013100000D081A0BFD7640EEB6F06EC00F081A077
:10132000B9D7D2A103D0D2818182B4D7D291819290
:10133000B1D70001D2915E6A5F6AD36BD293D46B4E
:10134000D56BD66BD76BD86BC26BC36BC46BC56BDD
:10135000D96B050EDF6F080EAE6FDF51AF6F050E54
:10136000E06F100EB06FE051B16F050EE16F000E2F
:10137000B26FE151B36FB46BB56B080EB66FB76B5C
:10138000080EB86FB96B080EBA6FBB6BBC6BBD6B48
:10139000596A5A6A5B6A5C6A5D6A120E8C6F010E4A
:1013A0008D6F100E8E6F010E8F6F906B916B926B25
:1013B000080E936FD80E946F040E956F0C0E966FF7
:1013C000976B986B020E996F010E9A6F020E9B6FCE
:1013D0009C6B010E9D6F050E056E010E066E090ECB
:1013E000076E020E086EA10E096E010E0A6E090E3E
:1013F0000B6E010E0C6EA10E0D6E0E6A050E0F6EB9
:10140000090E106E190E116E010E126E290E136E5A
:10141000030E146E150E156E166A250E176E010E4C
:10142000186E950E196E030E1A6E750E1B6E010E58
:101430001C6E810E1D6E020E1E6E950E1F6E010E2D
:10144000206E750E216E050E226E810E236E010E2A
:10145000246E050E256E010E266E090E276E300EC7
:10146000286E090E296E310E2A6E150E2B6E810E16
:101470002C6E250E2D6E7F0E2E6E750E2F6E080EA5
:10148000306E950E316E020E326E810E336E060E88
:10149000346EC00E356EC00E366E090E376E020EFB
:1014A000386E220E396E3A6A010E3B6E010E3C6EAA
:1014B0003D6A800E3E6E640E3F6E090E406E040E55
:1014C000416E426A436A010E446E030E456E010E80
:1014D000466E020E476E486A090E496E210E4A6E2C
:1014E000100E4B6E010E4C6E4D6A010E4E6E220EAA
:1014F0004F6E320E506E516A070E526E050E536ECD
:10150000810E546E030E556E030E566E576A0A0E08
:10151000586E040EBE6F030EBF6F090EC06F040E2F
:10152000C16F180E606F030E616F500E626F636BB8
:10153000690E646F656B630E666F676B500E686F44
:10154000696B610E6A6F6B6B630E6C6F6D6B6B0E0C
:101550006E6F6F6B200E706F716B490E726F736BD5
:101560006E0E746F756B630E766F776B140E786FFB
:10157000030E796F4A0E7A6F7B6B6F0E7C6F7D6BFB
:10158000790E7E6F7F6B2D0E806F816B4D0E826F9B
:10159000836B6F0E846F856B750E866F876B730E12
:1015A000886F896B650E8A6F8B6B44EF09F0EACF09
:1015B00001F0E9CF02F0F4CF03F0F3CF04F03AECFE
:1015C00008F0F2A411D00001F96BC451D624F86FD1
:1015D000C551F923F82BD8B4F92BF951D76EF8512E
:1015E000D66EF2944DEC08F004C0F3FF03C0F4FF94
:0A15F00002C0E9FF01C0EAFF11008C
:020000040030CA
:0E000000300E3E1EFF0080FF0FC00FE00F40CD
:00000001FF
