:020000040000FA
:040000001BEF07F0FB
:08000800A0EF08F0FE53000018
:1000100001E11200F90E00000000000000000000E5
:1000200000000000000000000000000000000000D0
:100030000000000000000000000000000000FF0FB2
:10004000D8A4E9D700000000000000000000000074
:1000500000000000000000000000000000000000A0
:100060000000000000000000000000000000FE2F63
:10007000D1D712000001F06BEE6B68966896689617
:100080006896080E0401016F880E006F080E046F59
:100090006E6A686A050E696E160E706E010E0001BA
:1000A000F66FEF6F1200689469946D920001EE6B29
:1000B00012000401065101012A6F2E6B2F6B0401FF
:1000C000075101012B6F2F512A272E512B232C6B07
:1000D0000001F75101012C611BD00001E751E55DE2
:1000E00002E1E651E45D14E2E551EA6EE451E96EA5
:1000F000EF5001012D6F2B51EA6E2A512C25E96E2C
:100100002D51EF6E0001E44BE52B01012C2BE0D7C4
:100110000001F75101012C6102D00001F26B0101D5
:100120002C510401056F400E0417400E041B880E6D
:1001300004131200689A1200698469986D82010E96
:100140000001EE6F12006C500001F36FF331F46F99
:10015000F433F4331F0EF417D890F437040EF3156C
:100160000101226F236B22510001F42702E30101F8
:10017000232B010123330001F43301012333000158
:10018000F433E951EA6EE851E96EF4510101226F4E
:1001900022372237FC0E2215E926EF500001C96FE5
:1001A000E851E96EF4510101226F22372237FC0E2B
:1001B0002215E926EC500001CA6FE851E96EF451AE
:1001C0000101226F22372237FC0E2215E926020E8A
:1001D000E926EE500001CB6FEF50CC6F68963C0ED5
:1001E000C91501011F6F240E1F630ED0040E0001FC
:1001F000F36306D0060EF263120059EC00F0120011
:100200000C0EF363120012003C0E0001C91501012F
:10021000206F040E206308D00001F353D8B41200FD
:10022000080EF363120012003C0E0001C915010113
:10023000216F340E21631200040102510001EA6FA4
:100240000101256B266B040103510001EB6F0101D5
:1002500026510001EA27010125510001EB23EB5152
:10026000EA6EEA51E96EEF50C16FEC50C26FE906D9
:10027000020EE926EE50C36FEF50C46FEA51E96EEB
:10028000040EE926EE50C56FEF50C66FEA51E96ED5
:10029000060EE926EE50C76FEF50C86F6A90080E41
:1002A0000401016F210E0001C16304D0C80E0401D6
:1002B000006F03D0880E0401006F080E046F6D9864
:1002C0000001F26BC15314E0C105D8B471D0020E25
:1002D000C16301D090D0800EC16301D018D1810ECE
:1002E000C16301D0B6D2820EC16380EF05F0BCD3EA
:1002F000C2050CE0030EC26301D017D0050EC26325
:1003000001D027D0090EC26351D035D0010EC3638E
:100310000AD0C45108E1EF930401056BC80E046FC5
:100320000001F26B120070801200C3510101226FB4
:10033000236B010E22630BD0235109E10001EF83EF
:100340000401056BC80E046F0001F26B120070808F
:100350001200C351F16F800EF1610BD00401056BE7
:10036000C80E046F0001F26B050EF26F090E696E84
:10037000120070801200010EC365C46702D0C35121
:10038000F06FC35305E1C45303E1020EF66F02D0D0
:10039000030EF66F0401056BC80E046F0001F26BCB
:1003A000480E04010C6F1E0E716E12007080120058
:1003B0000B0EC26301D006D0C2051BE0030EC26360
:1003C00018D017D0030EF66312D0C55101011C6F6F
:1003D00000EED1F0E9501C51E9260001C351EF6E47
:1003E0000401056BC80E046F0001F26B12007080EF
:1003F000120070801200C20504E0030EC26385D0B3
:1004000041D00F0E0101196F700E186F0F0E000111
:10041000C51501011B6F0001C35332E1C45330E124
:10042000030EF6150101246F020E24630FD01B5337
:100430000DE11951EA6E18511B25E96EEF90040188
:10044000056BC80E046F0001F26B1200030E000171
:10045000F6150101246F030E246310D0030E1B61F7
:100460000DD01951EA6E18511B25E96EEF90040169
:10047000056BC80E046F0001F26B12007080120051
:10048000708012000F0E0101246F700E186F24513E
:10049000196F0F0E0001C51501011B6F0001C35339
:1004A00032E1C45330E1030EF6150101246F020E50
:1004B00024630FD01B530DE11951EA6E18511B250F
:1004C000E96EEF800401056BC80E046F0001F26B4A
:1004D0001200030E0001F6150101246F030E2463C0
:1004E00010D0030E1B610DD01951EA6E18511B2557
:1004F000E96EEF800401056BC80E046F0001F26B1A
:100500001200708012007080120070801200080EBD
:10051000C26301D008D0060EC26301D028D0C253F6
:10052000D8B474D11200040106510001FE6F01011C
:10053000256B266B040107510001FF6F0101265155
:100540000001FE27010125510001FF23FF51EA6E42
:10055000FE51E96E0101246B2451E9260001F0519E
:10056000EF6E010E0401056FC80E046F1200C45136
:1005700001011D6F1D053EE1060E0001F26F000E28
:10058000E56FA60EE46F000E0101266FA60E0001B6
:10059000E66FE76B120EE627010126510001E72303
:1005A000E451E65D0101246F0001E551E7590101C5
:1005B000256F25510001C85D04E1010124510001AE
:1005C000C75D13E2C751E4250101266F0001C85140
:1005D0000101276F0001E551010127232651000188
:1005E000E66F010127510001E76F080EF76F59EC24
:1005F00000F01200020E1D633ED0060E0001F26FE5
:10060000000EE56F3D0EE46F000E0101266F3D0EFA
:100610000001E66FE76B220EE6270101265100017B
:10062000E723E451E65D0101246F0001E551E7593C
:100630000101256F25510001C85D04E1010124512C
:100640000001C75D13E2C751E4250101266F0001D7
:10065000C8510101276F0001E551010127232651EF
:100660000001E66F010127510001E76F080EF76FE7
:1006700059EC00F01200030E1D63C4D00001C351F9
:1006800001011E6F060E0001F26F080EF76F0101E7
:100690001E5306E01E053EE0020E1E63AFD074D06E
:1006A000000E0001E56FCD0EE46F000E01012A6F10
:1006B000CD0E0001E66FE76BCD51E62701012A510F
:1006C0000001E723E451E65D0101246F0001E551DB
:1006D000E7590101256F25510001C85D04E10101C1
:1006E00024510001C75D13E2C751E42501012A6FBF
:1006F0000001C85101012B6F0001E55101012B23BD
:100700002A510001E66F01012B510001E76F59ECFE
:1007100000F01200000E0001E56F920EE46F000E73
:1007200001012A6F920E0001E66FE76B9251E627F6
:1007300001012A510001E723E451E65D0101266F22
:100740000001E551E7590101276F27510001C85DFC
:1007500004E1010126510001C75D13E2C751E42500
:1007600001012A6F0001C85101012B6F0001E55101
:1007700001012B232A510001E66F01012B510001D9
:10078000E76F59EC00F01200000E0001E56F050E56
:10079000E46F000E01012A6F050E0001E66FE76BA2
:1007A0000550E62701012A510001E723E451E65DE7
:1007B0000101286F0001E551E7590101296F295115
:1007C0000001C85D04E1010128510001C75D13E289
:1007D000C751E42501012A6F0001C85101012B6FA7
:1007E0000001E55101012B232A510001E66F0101AF
:1007F0002B510001E76F59EC00F01200CC0E040100
:10080000046F1200CC0E0401046F1200E951EA6E6D
:10081000E851E96E040EE926020EE926EE50FE6F5D
:10082000EF50FF6FFF51EA6EFE51E96E0101246B3C
:100830002451E9260001EF51EF6EFE51E96E010EE1
:10084000E926000EEF6E020E0401056FC80E046F5C
:1008500012000A0EC26301D006D0C25339E0060E60
:10086000C263120091D0C55101011C6F030E00013B
:10087000F6632CD0010E01011C6128D00001E95162
:10088000EA6EE851E96E040EE926020EE926EE5002
:10089000FE6FEF50FF6F00EED1F0E95001011C51E7
:1008A000256F2551E926EF50266F0001FF51EA6EB2
:1008B000FE51E96E0101246B2451E9262651EF6EA9
:1008C000010E0401056FC80E046F12007080120043
:1008D000E951EA6EE851E96E040EE926020EE926B6
:1008E000EE50FE6FEF50FF6FFF51EA6EFE51E96E62
:1008F000010EE926000EEF6E020E0401056F0001E5
:10090000C55101011C6F020E0001F6631BD00101ED
:100910001C5318E100EED1F0E9501C51256F255110
:10092000E926EF50266F0001FF51EA6EFE51E96E95
:100930000101246B2451E9262651EF6EC80E0401F3
:10094000046F1200030E0001F6631CD0010E0101BA
:100950001C6118D000EED1F0E9501C51256F2551D3
:10096000E926EF50266F0001FF51EA6EFE51E96E55
:100970000101246B2451E9262651EF6EC80E0401B3
:10098000046F120070801200C45101011A6F220E10
:100990001A6332D0060E0001F26FC553D8B4C653A5
:1009A000000EE56F600EE46FE76B320EE425E66F34
:1009B000E551E723080EF76F320EC75D15E2C867F1
:1009C00013D0C751E4250101246F0001C851010172
:1009D000256F0001E5510101252324510001E66F37
:1009E000010125510001E76F59EC00F0010E0001F3
:1009F000C5631200C6511200210E1A6333D0060ED1
:100A00000001F26FC55328E1C65326E1000EE56FE1
:100A1000B80EE46FE76B090EE425E66FE551E723B6
:100A2000080EF76F090EC75D15E2C86713D0C751EE
:100A3000E4250101246F0001C8510101256F000167
:100A4000E5510101252324510001E66F01012551E3
:100A50000001E76F59EC00F0010E0001C5631200C0
:100A6000C651120070801200C253D8A412000F0E9B
:100A70000101246F700E186F2451196F0F0E0001C1
:100A8000C51501011B6F040106510101246F276B7D
:100A9000286B040107510101256F28512427275194
:100AA000252324510001FE6F010125510001FF6F34
:100AB000FF51EA6EFE51E96E010EE926000EEF6E5F
:100AC000020E0401056F030E01011B6117D01951BD
:100AD000EA6E18511B25E96E010EEF14256F000117
:100AE000FF51EA6EFE51E96E0101246B2451E926A3
:100AF0002551EF6EC80E0401046F120070801200C1
:100B0000C1AB1200040106510101246F276B286B51
:100B1000040107510101256F28512427275125235E
:100B200024510001FE6F010125510001FF6F210ECC
:100B3000C16301D014D0A10EC16301D029D0220E0F
:100B4000C16301D045D0230EC16301D043D0A20EB2
:100B5000C16301D041D0A30EC16342D03FD00B0E80
:100B6000C26301D008D0090EC26301D012000A0E80
:100B7000C2630CD009D0C351F56F0401056BC80ED8
:100B8000046F0001F26B120070801200708012007E
:100B9000030EC26301D007D0C205D8B41200020E02
:100BA000C26314D011D0FF51EA6EFE51E96E01010B
:100BB000246B2451E9260001F551EF6E010E04016A
:100BC000056FC80E046F1200708012007080120052
:100BD000708012007080120070801200708012000D
:100BE000708012006AA005D06BA003D00001D44B26
:100BF000D52B6AA205D06BA203D00001D64BD72B10
:100C00006AA405D06BA403D00001D84BD92B6AA6E7
:100C100005D06BA603D00001DA4BDB2B6AA805D008
:100C20006BA803D00001DC4BDD2B6AAE05D06BAEA8
:100C300003D00001E24BE32B6A6A6892120068B6A7
:100C4000A3EC00F068BA9AEC00F068B2F2EC05F0A0
:100C500069B89CEC00F01200936A800E04010C1538
:100C600001011C6F1C533AE10001FE5104010D6F9C
:100C70000E5101011A6F1E6B1F6B04010F51010110
:100C80001B6F1F511A271E511B230001FF6BFE51C2
:100C9000FF6119D001011951EA6E1851E96E000186
:100CA000FF5101011D6F1D51E926EF501E6F1B51B1
:100CB000EA6E1A510001FF25E96E01011E51EF6E27
:100CC0000001FF2BE4D7400E04010C17400E0C1B53
:100CD000880E0C1B010E01011D6F12001D6B12000E
:100CE0006F846F886980A08A6D8C6D9C6D86000111
:100CF000F06B010EEF6F0101186B196B1A6B00019D
:100D0000F26BD46BD56BD66BD76BD86BD96BDA6BB8
:100D1000DB6BDC6BDD6BE26BE36BC00EF210F26E33
:100D200012000101006901690269010E036F046F7D
:100D3000056F066F076F086F09690A690B690C690F
:100D40000D6B010E0E6F0F6F106B11691269136B33
:100D5000010E146F156F166B1769936A0001F86B1B
:100D6000050EF8610DD0F96BFA6BFA0EFA5D02E12F
:100D7000000EF95D03E2F94BFA2BF7D7F82BF0D709
:100D800070EC06F0FB6B0A0EF86FF96BFA6BC70E8E
:100D9000D56EF2A421D0F2941FEC06F05FA01CD017
:100DA000090E0001F8650AD0F86BF94BFA2B0C0E0E
:100DB000F96304D0FA5102E1F96BFA6B01EE00F02D
:100DC000E950F951E926EF50FC6F01EE0CF0E950C3
:100DD000F951E926EF50FD6F030E0001F615FE6F85
:100DE000030EFE630DD0030EFE6F000E0101196F9E
:100DF000FB0E186F2CEC06F01D5302E00001F82BDF
:100E0000000E81B4010A5FB2010AFF0B10E081B449
:100E10000ED0640E0001FE6F06EC00F081B407D026
:100E20005FB003D05F80818202D05F9081925F9239
:100E300081B45F82AED75F905F82080E0401016FBC
:100E4000026B050E036F080E056F800E066F050E10
:100E5000076F080E096F0A6B060E0B6F080E0D6FF9
:100E6000800E0E6F060E0F6F080E116F126B070EBD
:100E7000136F080E156F800E166F070E176F0001A7
:100E8000D46BD56BD66BD76BD86BD96BDA6BDB6B4E
:100E9000DC6BDD6BDE6BDF6BE06BE16BE26BE36BFE
:100EA000E86B040EE96F040ECD6F030ECE6F090ED2
:100EB000CF6F040ED06F140E926F030E936F4D0E12
:100EC000946F956B690E966F976B630E986F996B25
:100ED000720E9A6F9B6B6F0E9C6F9D6B630E9E6F75
:100EE0009F6B680EA06FA16B690EA26FA36B700E53
:100EF000A46FA56B380E056E030E066E500E076EBE
:100F0000086A690E096E0A6A630E0B6E0C6A310E6E
:100F10000D6E0E6A380E0F6E106A460E116E126A52
:100F2000320E136E146A350E156E166A350E176E74
:100F3000186A300E196E1A6A200E1B6E1C6A490E52
:100F40001D6E1E6A720E1F6E206A720E216E226A5C
:100F5000690E236E246A740E256E266A610E276E52
:100F6000286A740E296E2A6A690E2B6E2C6A6E0E20
:100F70002D6E2E6A670E2F6E306A200E316E326A29
:100F80004D0E336E346A6F0E356E366A750E376EDF
:100F9000386A730E396E3A6A650E3B6E3C6A050E0E
:100FA000606F010E616F090E626F020E636FA10E1A
:100FB000646F010E656F090E666F010E676FA10EFB
:100FC000686F696B050E6A6F090E6B6F190E6C6F97
:100FD000010E6D6F290E6E6F030E6F6F150E706F21
:100FE000716B250E726F010E736F950E746F030E89
:100FF000756F750E766F010E776F810E786F020E2A
:10100000796F950E7A6F010E7B6F750E7C6F050EF2
:101010007D6F810E7E6F010E7F6F050E806F010E5A
:10102000816F090E826F300E836F090E846F310E4F
:10103000856F150E866F810E876F250E886F7F0E68
:10104000896F750E8A6F080E8B6F950E8C6F020E6E
:101050008D6F810E8E6F060E8F6FC00E906FC00E5B
:10106000916F120EA66F010EA76F100EA86F010EE2
:10107000A96FAA6BAB6BAC6B080EAD6FD80EAE6FE1
:10108000040EAF6F090EB06FB16BB26B020EB36F8F
:10109000010EB46F020EB56FB66B010EB76F090E7D
:1010A0003D6E020E3E6E220E3F6E406A010E416E94
:1010B000010E426E436AA00E446E320E456E090E5A
:1010C000466E040E476E486A496A010E4A6E030E68
:1010D0004B6E010E4C6E020E4D6E4E6A090E4F6E37
:1010E000210E506E100E516E010E526E536A010E9B
:1010F000546E220E556E320E566E576A070E586E9B
:10110000050E596E810E5A6E030E5B6E030E5C6EF9
:101110005D6A0A0E5E6E320EEC6FED6B090EB86FF3
:10112000210EB96F100EBA6F010EBB6FBC6B010EB2
:10113000BD6F220EBE6F320EBF6FC06B91EF06F017
:10114000EACF01F0E9CF02F0F4CF03F0F3CF04F0DF
:10115000A0AA26D0A1AA24D068A404D069A402D051
:1011600053EC00F068A004D069A002D03AEC00F083
:1011700068A615D069A613D0050E0001F2630ED043
:10118000F26BF06BF1516E6E010E696E000EF1653F
:1011900003D0020EF66F02D0010EF66F6896A19A88
:1011A00004C0F3FF03C0F4FF02C0E9FF01C0EAFF7F
:0211B00011002C
:020000040030CA
:0E000000300E3E1EFF0080FF0FC00FE00F40CD
:00000001FF
