:020000040000FA
:0400000035EF08F0E0
:0800080073EF09F0DE53000064
:1000100001E11200F90E00000000000000000000E5
:1000200000000000000000000000000000000000D0
:100030000000000000000000000000000000FF0FB2
:10004000D8A4E9D700000000000000000000000074
:1000500000000000000000000000000000000000A0
:100060000000000000000000000000000000DE2F83
:10007000D1D712000001D151D26301D01200D12991
:100080000101FF6FFE0EFF6301D0FF6BFF51000106
:10009000D26301D09D9801EE00F0E950D151E926DC
:1000A000EF50AD6E0101FF510001D16F1200D1512F
:1000B000D26305D09EA803D0FE51AD6E1200D229A6
:1000C000FF6FFE0EFF6301D0FF6BD151FF6306D0BF
:1000D000F2BEFBD79EB83AEC00F0F7D70101FE91D3
:1000E000F2BEFE81F29EF2BEFDD701EE00F0E950B5
:1000F0000001D251E926FE51EF6EFF51D26F9D886B
:100100000101FEB1F28EFEA1F29E1200FD6BFC51C8
:10011000EA6EFB51FD25E96EEF52D8B41200FC5196
:10012000EA6EFB51FD25E96EEF50FE6F57EC00F0D3
:100130000001FD2BECD702010D6B0E6B096B0A6BF6
:100140000B6B100E0B150C6F0C671200D890093753
:100150000A370001FE37FF3702010D370E37010164
:10016000FE5102010D5D0101FF5102010E630E5DA2
:1001700009E30101FE5102010D5F0101FF5102017E
:100180000E5B09810B2BDDD70201066B076B0A6B37
:100190000B6B086B100E0815096F09671200D890D9
:1001A0000A370B370001FE37FF37020106370737E2
:1001B0000101FE510201065D0101FF5102010763C9
:1001C000075D09E30101FE510201065F0101FF51D4
:1001D0000201075B0A81082BDDD7040104AF23D09D
:1001E000200E0201006F076F0B6F0F6F210E016F62
:1001F0000E6F270E056F640E026F690E0C6F6E0E88
:10020000046F0A6F6F0E036F086F740E066F0D6F29
:10021000770E096F106B020E0001FC6F000EFB6F72
:1002200086EC00F012000001F26BD851F2611FD091
:10023000C351C75D02E1C251C65D19E2C551C75D38
:1002400002E1C451C65D13E2C951EA6EC851E96EBC
:10025000EF50F36FCB51EA6ECA51F225E96EF351BC
:10026000EF6EC84BC92BC64BC72BF22BDED7D8512C
:10027000F2610FD0C451C66304D0C551C76301D029
:1002800006D0C251C66305D0C351C76302D0050E64
:10029000D76FF2510401056F050E076F080E066F48
:1002A000400E041B049B0499048704950493049155
:1002B000048F1200200E0001FE6F57EC00F01200B8
:1002C000050EFD6F0201056B0001FD07FB51FE6F7E
:1002D000FC51FF6F0A0E0101FE6FFF6B9BEC00F0FB
:1002E0000D51066F0E51076F0651300F086F02EE69
:1002F00000F0E9500001FD51E92602010851EF6EBE
:100300000001FB51FE6FFC51FF6F0A0E0101FE6FF1
:10031000FF6BC4EC00F00A510001FB6F02010B51AE
:100320000001FC6F000EFB65FC67CED702EE00F00B
:10033000E950FD51E926EF52D8B4120002EE00F068
:10034000E950FD51E926EF50FE6F57EC00F0000137
:10035000FD2BECD704010485048F0085008F12006B
:10036000080ED86FC66BC76B010EC26FC36BC46B30
:10037000C56BF151DA6F000EC96FDA0EC86F040E4B
:10038000CD6F040ECC6F050ECB6F080ECA6F040143
:10039000049DEDEC00F01200080E0001D86F040E71
:1003A000CD6F040ECC6F050ECB6F080ECA6FC66BF7
:1003B000C76BC26BC36BC46BC56BC86BC96B0401E5
:1003C000049DEDEC00F01200F76BF86BF10510E006
:1003D000020EF16301D02DD0030EF16301D04BD09A
:1003E000060EF16301D08CD0220EF163E4D0BAD0B6
:1003F000200E0201006F076F440E016F630E056F40
:10040000650E026F066F690E046F760E036F086B40
:10041000020E0001FC6F000EFB6F86EC00F0000E78
:10042000FB6F8C0EF76FFB51F86F120EF96FFA6BC2
:10043000D7D0200E0201006F076F430E016F660ECA
:10044000046F670E066F690E056F6E0E036F6F0EF9
:10045000026F086B020E0001FC6F000EFB6F86EC52
:1004600000F0000EFB6F370EF76FFB51F86F220E96
:10047000F96FFA6BB5D0200E0201006F086F3A0ECB
:10048000076F530E016F670E066F690E046F6E0ED5
:10049000056F720E036F740E026F096B020E00017E
:1004A000FC6F000EFB6F86EC00F0F251FB6FFC6BF3
:1004B00060EC01F0F25306E0F2050EE0020EF2638A
:1004C0008FD014D0040EF96FFA6B000EFB6FBA0ECA
:1004D000F76FFB51F86F84D0180EF96FFA6B000EAE
:1004E000FB6F600EF76FFB51F86F7AD0140EF96F47
:1004F000FA6B000EFB6F780EF76FFB51F86F70D040
:10050000200E0201006F076F0C6F186F280E0D6F21
:10051000290E176F440E016F510E086F610E0A6F9E
:10052000116F630E056F640E136F166F650E026F09
:10053000066F156F680E106F690E046F6C0E0B6FEF
:10054000146F6E0E0F6F126F750E096F0E6F760EB1
:10055000036F196B020E0001FC6F000EFB6F86EC3F
:1005600000F03ED0200E0201006F046F0B6F440EAE
:10057000036F480E016F490E026F520E056F650E34
:10058000066F6F0E086F700E076F720E096F740E94
:100590000A6F0C6B020E0001FC6F000EFB6F86EC05
:1005A00000F0320EF96FFA6B000EFB6F050EF76F5D
:1005B000FB51F86F15D03F0E0201006F016F200E46
:1005C000026F036B020E0001FC6F000EFB6F86ECE6
:1005D00000F0F151FB6FFC6B60EC01F05AEC01F0A4
:1005E0000001F451EA6EF351E96EE92AF751FB6F0D
:1005F000F851EF6EE906FB51EF6EF651EA6EF551D8
:10060000E96EE92AF951FB6FFA51EF6EE906FB51E9
:10061000EF6E1200200E0201066F0A6F430E006F8C
:10062000650E076F660E036F670E056F690E046F28
:100630006E0E026F6F0E016F700E086F730E096FF2
:100640000B6B020E0001FC6F000EFB6F86EC00F0DE
:10065000718871947182718604010C8D0C9B0C99C8
:100660000C970C950C930C910C9F1200F1390F0B09
:10067000F26F0A0EF26104D0F251300FFE6F03D018
:10068000F251370FFE6F57EC00F00F0E0001F1151D
:10069000F26F0A0EF26104D0F251300FFE6F03D0F8
:1006A000F251370FFE6F57EC00F01200500E0001B0
:1006B000FE6F57EC00F0080E0401016F026B050E8F
:1006C000036F008D009B00990087009500930091B7
:1006D000008F1200060EE86301D010D0050EE8630B
:1006E00001D068D0090EE86301D082D00A0EE86319
:1006F00001D098D0E853D8B4A9D0BBD0200EF36F66
:10070000F76F3A0EF66F440EF56F470EF46FF86B05
:10071000000EFC6FF30EFB6F86EC00F0EA51EF6FFA
:10072000E951F06FEF51FB6FFC6B60EC01F0EF51A2
:10073000F16FF051F26F000EF46FC80EF36F000E00
:10074000F66FC20EF56FE4EC01F0C85302E1C95335
:1007500017E0030ED76FED51C46FEE51C56FC66B36
:10076000C76B080ED86F040ECD6F040ECC6F080E49
:10077000CA6F050ECB6F0401049DEDEC00F0120072
:10078000200EF16FF96F3C0EF26F3E0EF86F610EA6
:10079000F56F6C0EF66FF76F730EF36F740EF46FE8
:1007A000FA6B000EFC6FF10EFB6F86EC00F0AAEC0A
:1007B00001F01200E951D66F200EF16F530EF26F67
:1007C000410EF36F3A0EF46FF56B000EFC6FF10EF5
:1007D000FB6F86EC00F0D651F16F36EC03F0010EA2
:1007E0000001D96FCCEC01F0060E0001D76F1200AA
:1007F000200EF16FF56F3A0EF46F430EF36F530E48
:10080000F26FF66B000EFC6FF10EFB6F86EC00F0E2
:10081000060ED76FCCEC01F0030E0001D56F0AEC89
:1008200003F01200200EF16FF46F470EF26F490EC5
:10083000F36FF56B000EFC6FF10EFB6F86EC00F0B2
:10084000030ED76F010EF16FB0EC01F0200E000126
:10085000F16FF46F470EF26F530EF36FF56B000EEE
:10086000FC6FF10EFB6F86EC00F0F16BB0EC01F069
:100870001200200EF16FF66F3F0EF26FF36F520E03
:10088000F56F530EF46FF76B000EFC6FF10EFB6FFC
:1008900086EC00F0E851FB6FFC6B60EC01F012009D
:1008A00012001200200E0201056F0E6F3A0E0D6F3E
:1008B000430E006F610E026F650E076F0A6F6C0EBC
:1008C000016F710E086F720E066F730E036F046F67
:1008D0000B6F740E0C6F750E096F0F6B020E00011B
:1008E000FC6F000EFB6F86EC00F0E551FB6FFC6BBC
:1008F00060EC01F0E505D8B41200020EE56301D00A
:100900001200030EE56301D01200090EE56301D069
:1009100012000A0EE56301D004D00B0EE56312004D
:100920001200200E0201006F096F530E016F5F0E5F
:10093000046F640E066F650E026F086F690E056F17
:100940006C0E076F740E036F0A6B020E0001FC6FD2
:10095000000EFB6F86EC00F0AAEC01F01200E451EF
:10096000E96FE551EA6FE651EB6FE751EC6F000E6E
:10097000E86512D0EC51EA6EEB51E96EEB4BEC2BD3
:10098000EF50ED6FEA51EA6EE951E96EE94BEA2B5F
:10099000ED51EF6EE807EBD7E451ED6FE551EE6FE7
:1009A0001200200E0001DF6FE76F3A0EE16F530E69
:1009B000E26F550EE06F610EE46F6C0EE56FE66F4F
:1009C000740EE36FE86B000EFC6FDF0EFB6F86ECBE
:1009D00000F012000001D66BD76BD96B6896689651
:1009E00068966896080E0401016F026B050E036F8E
:1009F000009D009B00990097009500930091008F47
:100A0000080E056F066F050E076F049D049B049981
:100A1000049504930491049F0A0E0001DF6F520EA7
:100A2000E06F200EE16FE26B000EFC6FDF0EFB6FDC
:100A300086EC00F06850F16F36EC03F012006C3079
:100A40000001DF6FDF33DF331F0EDF176CA419D017
:100A50000A0EE16F440EE26F490EE36F200EE46F61
:100A6000E56B000EFC6FE10EFB6F86EC00F00401FD
:100A700004310001E06FE0333F0EE0170F0EE01786
:100A800019D0040100310001E16FE1333F0EE1179D
:100A90000F0EE115E06F0A0EE16F440EE26F4F0E8C
:100AA000E36F200EE46FE56B000EFC6FE10EFB6F51
:100AB00086EC00F0DF530BE0450EFE6F57EC00F0C4
:100AC0000001DF51F16F36EC03F05AEC01F0000148
:100AD000DF53D8A45ED20D0EE06307D1000EE56FA0
:100AE0009E0EE46F050EE76F000EE66F080EE86FCE
:100AF000AFEC04F056EC03F0200E0001E46FEA6F57
:100B0000530EE56F650EE66F700EE96F740EE76FBA
:100B1000750EE86FEB6B000EFC6FE40EFB6F86EC5E
:100B200000F09E51F16F36EC03F0200E0001FE6FD5
:100B300057EC00F000019EAF23D0200E0201006FA1
:100B4000056F0E6F3D0E0B6F440E016F490E0C6F5B
:100B50004E0E0D6F610E026F046F086F650E0A6F07
:100B6000670E096F730E066F740E036F076F0F6BBE
:100B7000020E0001FC6F000EFB6F86EC00F029D026
:100B8000200E0201006F056F126F2F0E0F6F3D0ECA
:100B90000B6F440E016F4E0E106F4F0E0C6F116FE6
:100BA000540E0E6F550E0D6F610E026F046F086FBD
:100BB000650E0A6F670E096F730E066F740E036F72
:100BC000076F136B020E0001FC6F000EFB6F86ECCB
:100BD00000F0400E9E15E16FE16738D0200E9E15A3
:100BE000E26FE26733D01F0E9E15E46FE4530BE013
:100BF0001F0E9E15E56FE50506E01F0E9E15E66FBC
:100C0000030EE66300D0200EE76FEB6F640EEA6F11
:100C1000730EE86F740EE96FEC6B000EFC6FE70E5D
:100C2000FB6F86EC00F0A551EE6FA451ED6FA35160
:100C3000EC6FA251EB6FA151EA6FA051E96F9F5188
:100C4000E86F9E51E76F6AEC03F04DD0400E9E15A1
:100C5000E36FE36728D09EAB26D0200EE46FEA6FE7
:100C6000610EE76F630EE56F6C0EE66F730EE86F53
:100C7000E96FEB6B000EFC6FE40EFB6F86EC00F08F
:100C8000A551EB6FA451EA6FA351E96FA251E86F30
:100C9000A151E76FA051E66F9F51E56F9E51E46F40
:100CA00052EC04F020D0200EE46FEA6F3D0EEC6FA2
:100CB0003F0EE56FE66F650EE86F710EE96F720E1D
:100CC000E76F740EEB6FED6B000EFC6FE40EFB6FC5
:100CD00086EC00F09E51FB6FFC6B60EC01F0200E87
:100CE000FE6F57EC00F06D981200090EE06399D08A
:100CF000200EE16FE46F490EE26F4E0EE36FE56B7D
:100D0000000EFC6FE10EFB6F86EC00F0030ED76364
:100D100003D0EDEC00F01200060ED76319D0D76BAC
:100D2000D90505E1020ED56FD6516E6ED96B200E36
:100D3000E16F2D0EE26FE36FE46FE56F0A0EE66F71
:100D4000E76B000EFC6FE10EFB6F86EC00F012000B
:100D5000050ED76302D000001200040ED76346D000
:100D6000200E0201006F056F0A6F0F6F156F1B6F6A
:100D70001D6F226F256F2B6F2D0E1C6F3F0E2A6F7C
:100D8000610E086F0C6F0E6F126F186F630E016F9C
:100D9000166F266F640E096F0B6F650E076F146F69
:100DA000216F296F670E136F6C0E046F176F6D0E36
:100DB0001E6F286F6F0E1F6F246F276F720E036FE9
:100DC000066F206F730E106F196F1A6F740E026F1B
:100DD0000D6F116F236F2C6B020E0001FC6F000E64
:100DE000FB6F86EC00F051EC04F01200200EE16F76
:100DF000E46F3D0EE76F3F0EE26FE36F630EE56F4A
:100E00006D0EE66FE86B000EFC6FE10EFB6F86EC7B
:100E100000F0D751FB6FFC6B60EC01F05AEC01F075
:100E20001200020EE06344D02A0EE16FE26FE36F1E
:100E3000E46F410EE56F0A0EE66FE76B000EFC6F84
:100E4000E10EFB6F86EC00F0030ED76311D0200E8D
:100E5000E16FE46F260EE26F320EE36FE56B000E7A
:100E6000FC6FE10EFB6F86EC00F0EDEC00F0120081
:100E7000040ED76303D051EC04F01200060ED763C2
:100E80001200200EE16FE46FE96F650EE66F6E0EE3
:100E9000E76F730EE26FE56F740EE36FE86FEA6B56
:100EA000000EFC6FE10EFB6F86EC00F0D76B1200BA
:100EB000E00552E1050ED76312D0200EE16F2D0E32
:100EC000E26FE36FE46FE56F0A0EE66FE76B000E0B
:100ED000FC6FE10EFB6F86EC00F0D76B3AD0020E90
:100EE000D7630CD0050EE26F000EE16F04010151D3
:100EF0000001E36FE46B50EC04F02BD0030ED763DA
:100F000002D0D76B26D0200EE66FEE6F3F0EE16F5A
:100F1000E26F4F0EEB6F540EED6F550EEC6F5F0EE0
:100F2000EA6F640EE96F690EE86F6B0EE56F6E0E87
:100F3000E46F700EE76F750EE36FEF6B000EFC6FE2
:100F4000E10EFB6F86EC00F0D751FB6FFC6B60ECA1
:100F500001F056EC03F01200200EE16FE76FE96F2D
:100F60003D0EE86F440EE66F490EE56F4B0EE36FE2
:100F7000500EE46F550EE26FEA6B000EFC6FE10E4F
:100F8000FB6F86EC00F0E051FB6FFC6B60EC01F056
:100F900012006CA402D00000120000EEA6F0E9508E
:100FA000DF51E36FD890E335E926EE50E16FEF5063
:100FB000E26F00EEB6F0E950DF51E36FD890E3370F
:100FC000E351E926EE50E46FEF50E56FE251EA6E2F
:100FD000E129E96EE451EF6EE906EF9CEF9AEF9894
:100FE000EF96EF94EF92EF90EF8E12000001BE4B60
:100FF000BF2B1200A1AA1200A19A68A603D01FEC71
:1010000005F0689668A003D0EAEC04F0689068AA3E
:101010001200D1EC04F0689A1200F6EC07F012000E
:10102000926A806A010E936E816A946A826AC26AC9
:101030000F0EC16E6D86F19EF28C8182F28E1200CF
:1010400010EC08F00001CEA100D081A0FBD7640E07
:10105000DE6F06EC00F081A0F5D7CEA103D0CE81E3
:101060008182F0D7CE918192EDD70001CE915E6A58
:101070005F6ACF6BCE93D06BD16BD26BD36BD46BDB
:10108000BE6BBF6BC06BC16BD56B050EDB6F080E03
:10109000AA6FDB51AB6F050EDC6F100EAC6FDC512D
:1010A000AD6F050EDD6F000EAE6FDD51AF6FB06B33
:1010B000B16B080EB26FB36B080EB46FB56B080E50
:1010C000B66FB76BB86BB96B596A5A6A5B6A5C6A80
:1010D0005D6A120E8C6F010E8D6F100E8E6F010EF9
:1010E0008F6F906B916B926B080E936FD80E946F0D
:1010F000040E956F0C0E966F976B986B020E996F9E
:10110000010E9A6F020E9B6F9C6B010E9D6F050E78
:10111000056E010E066E090E076E020E086EA10E18
:10112000096E010E0A6E090E0B6E010E0C6EA10EF9
:101130000D6E0E6A050E0F6E090E106E190E116EF1
:10114000010E126E290E136E030E146E150E156E1F
:10115000166A250E176E010E186E950E196E030E87
:101160001A6E750E1B6E010E1C6E810E1D6E020E28
:101170001E6E950E1F6E010E206E750E216E050EF1
:10118000226E810E236E010E246E050E256E010E59
:10119000266E090E276E300E286E090E296E310E4E
:1011A0002A6E150E2B6E810E2C6E250E2D6E7F0E67
:1011B0002E6E750E2F6E080E306E950E316E020E6D
:1011C000326E810E336E060E346EC00E356EC00E5A
:1011D000366E090E376E020E386E220E396E3A6A7E
:1011E000010E3B6E010E3C6E3D6A800E3E6E640E3B
:1011F0003F6E090E406E040E416E426A436A010E54
:10120000446E030E456E010E466E020E476E486A2E
:10121000090E496E210E4A6E100E4B6E010E4C6E79
:101220004D6A010E4E6E220E4F6E320E506E516A96
:10123000070E526E050E536E810E546E030E556EE0
:10124000030E566E576A0A0E586E040EBA6F030EDE
:10125000BB6F090EBC6F040EBD6F180E606F030EDE
:10126000616F500E626F636B690E646F656B630E26
:10127000666F676B500E686F696B610E6A6F6B6BA0
:10128000630E6C6F6D6B6B0E6E6F6F6B200E706FFD
:10129000716B490E726F736B6E0E746F756B630EAC
:1012A000766F776B140E786F030E796F4A0E7A6F34
:1012B0007B6B6F0E7C6F7D6B790E7E6F7F6B2D0E5F
:1012C000806F816B4D0E826F836B6F0E846F856BA9
:1012D000750E866F876B730E886F896B650E8A6FCC
:1012E0008B6B20EF08F0EACF01F0E9CF02F0F4CFEA
:1012F00003F0F3CF04F0FAEC07F0F2A411D00001F0
:10130000E06BC051D624DF6FC151E023DF2BD8B48E
:10131000E02BE051D76EDF51D66EF2940DEC08F061
:1013200004C0F3FF03C0F4FF02C0E9FF01C0EAFFFD
:021330001100AA
:020000040030CA
:0E000000300E3E1EFF0080FF0FC00FE00F40CD
:00000001FF
