:020000040000FA
:04000000C2EF04F057
:08000800FDEF05F0E7530000D5
:1000100001E11200F90E00000000000000000000E5
:1000200000000000000000000000000000000000D0
:100030000000000000000000000000000000FF0FB2
:10004000D8A4E9D700000000000000000000000074
:1000500000000000000000000000000000000000A0
:100060000000000000000000000000000000E72F7A
:10007000D1D71200040104BF12000001FC6BD8515B
:10008000FC611FD0C751CB5D02E1C651CA5D19E2C8
:10009000C951CB5D02E1C851CA5D13E2CD51EA6E90
:1000A000CC51E96EEF50FD6FCF51EA6ECE51FC2579
:1000B000E96EFD51EF6ECC4BCD2BCA4BCB2BFC2BFD
:1000C000DED7D851FC610FD0C851CA6304D0C951E2
:1000D000CB6301D006D0C651CA6305D0C751CB63EC
:1000E00002D0050ED76FFC510401056F050E076F96
:1000F000080E066F400E041B049B049904870495A8
:1001000004930491048F120004010485048F008578
:10011000008F1200080ED86FCA6BCB6B010EC66F32
:10012000C76BC86BC96BFB51DA6F000ECD6FDA0E6F
:10013000CC6F040ED16F040ED06F050ECF6F080E7A
:10014000CE6F0401049D3AEC00F01200080E00018D
:10015000D86F040ED16F040ED06F050ECF6F080E4E
:10016000CE6FCA6BCB6BC66BC76BC86BC96BCC6BE6
:10017000CD6B0401049D3AEC00F012000A6B0B6B8E
:100180000001FB0510E0020EFB6301D019D0030E45
:10019000FB6301D022D0060EFB6301D061D0220E9A
:1001A000FB635ED04FD0000EFF6F8C0E01010A6F13
:1001B0000001FF5101010B6F120E0C6F0D6B50D03F
:1001C000000EFF6F370E01010A6F0001FF510101A0
:1001D0000B6F220E0C6F0D6B43D0FC5306E0FC0539
:1001E00013E0020EFC633CD01ED0040E01010C6F24
:1001F0000D6B000E0001FF6FBE0E01010A6F0001C2
:10020000FF5101010B6F2CD0180E01010C6F0D6B0B
:10021000000E0001FF6F600E01010A6F0001FF5127
:1002200001010B6F1DD0140E01010C6F0D6B000E40
:100230000001FF6F780E01010A6F0001FF510101FB
:100240000B6F0ED0320E01010C6F0D6B000E000112
:10025000FF6F050E01010A6F0001FF5101010B6FD5
:100260000001FE51EA6EFD51E96EE92A01010A51D1
:100270000001FF6F01010B51EF6EE9060001FF5114
:10028000EF6E01010951EA6E0851E96EE92A0C513D
:100290000001FF6F01010D51EF6EE9060001FF51F2
:1002A000EF6E1200718871947182718604010C8D59
:1002B0000C9B0C990C970C950C930C910C9F1200B5
:1002C000080E0401016F026B050E036F008D009B89
:1002D00000990087009500930091008F1200060E90
:1002E000016301D00FD0050E016301D043D0090E88
:1002F000016301D04AD00A0E016301D051D00153ED
:1003000056E0120003510001F96F01010251000192
:10031000FA6FF951FB6FFA51FC6F000EFE6FCC0EB5
:10032000FD6F000E0101096FC60E086FBEEC00F0F4
:10033000CC5302E1CD531BE0030ED76F01010651F0
:100340000001C86F010107510001C96FCA6BCB6B77
:10035000080ED86F040ED16F040ED06F080ECE6F4A
:10036000050ECF6F0401049D3AEC00F0120084ECFE
:1003700000F0120002510001D66F010ED96FA6ECF9
:1003800000F0060E0001D76F1200060E0001D76FB5
:10039000A6EC00F0030E0001D56F52EC01F0120044
:1003A000030E0001D76F010EFB6F8AEC00F0000115
:1003B000FB6B8AEC00F01200120012000105D8B4A9
:1003C0001200020E016301D01200030E016301D07E
:1003D0001200090E016301D012000A0E016301D060
:1003E00004D00B0E01631200120084EC00F0120026
:1003F000F951FE6FFA51FF6FFB510101006F0001CF
:10040000FC510101016F000E0001FD6516D00101D4
:100410000151EA6E0051E96E004B012BEF50026F63
:100420000001FF51EA6EFE51E96EFE4BFF2B010108
:100430000251EF6E0001FD07E6D7F9510101026F8D
:100440000001FA510101036F120012000001D66B86
:10045000D76BD96B6896689668966896080E040103
:10046000016F026B050E036F009D009B00990097C2
:10047000009500930091008F080E056F066F050E22
:10048000076F049D049B0499049504930491049FB1
:1004900012006C300001F46FF433F4331F0EF417C4
:1004A0006CA40AD0040104310001F56FF5333F0E4E
:1004B000F5170F0EF5170AD0040100310001F66F91
:1004C000F6333F0EF6170F0EF615F56FF453D8A45A
:1004D000BDD00D0EF56365D0000EFA6F9E0EF96F5C
:1004E000050EFC6F000EFB6F080EFD6FF8EC01F0BF
:1004F00060EC01F0400E00019E15F66FF66727D004
:10050000200E9E15F76FF76722D0A5510101076FE6
:100510000001A4510101066F0001A3510101056F03
:100520000001A2510101046F0001A1510101036FFB
:100530000001A0510101026F00019F510101016FF3
:1005400000019E510101006F6FEC01F028D0400EB8
:100550009E15F86FF86723D09EAB21D0A5510101FD
:10056000076F0001A4510101066F0001A3510101B1
:10057000056F0001A2510101046F0001A1510101A9
:10058000036F0001A0510101026F00019F510101A1
:10059000016F00019E510101006FDEEC01F06D98CA
:1005A0001200090EF56320D0030ED76303D03AEC96
:1005B00000F01200060ED7630AD0D76BD905D8A475
:1005C0001200020ED56FD6516E6ED96B1200050E59
:1005D000D76302D000001200040ED76303D0DDEC15
:1005E00001F0120000001200020EF56311D0030E9C
:1005F000D76303D03AEC00F01200040ED76303D0A7
:10060000DDEC01F01200060ED7631200D76B12006A
:10061000F505D8A41200050ED76302D0D76B13D00E
:10062000020ED7630CD0050EF76F000EF66F0401B3
:1006300001510001F86FF96BDCEC01F004D0030EFE
:10064000D76301D0D76B60EC01F012006CA402D02C
:100650000000120000EEAAF0E950F451F86FD890B3
:10066000F835E926EE50F66FEF50F76F00EEBAF06E
:10067000E950F451F86FD890F837F851E926EE5068
:10068000F96FEF50FA6FF751EA6EF629E96EF951FA
:10069000EF6EE906EF9CEF9AEF98EF96EF94EF92EA
:1006A000EF90EF8E12000001C24BC32B1200A1AAE3
:1006B0001200A19A68A603D049EC02F0689668A0DF
:1006C00003D026EC02F0689068AA120025EC02F034
:1006D000689A120053EC03F012000001D56B6F967C
:1006E0006F846F886F926F9070887084708270963C
:1006F000040EAB6F000EAA6F040EAD6F080EAC6F48
:10070000040EA76F040EA66F040EA96F0C0EA86F3F
:100710001200686A6D86010E0001D56F1200698AA9
:1007200069866980A08A12000001C551D76EC45144
:10073000D66ED58E1200D59EE7A102D0D58C01D001
:10074000D59CD59AE82902E1D58605D0D596F80E34
:10075000D516E851D512E951C46FEA51C56FF28A36
:10076000120000EEAEF0E950E851F26FD890F23589
:10077000E926EE50F06FEF50F16F00EEA6F0E95071
:10078000E851F26FD890F235E926EE50EE6FEF5057
:10079000EF6FEF51EA6EEE51E96EEFBE1200ED6BB6
:1007A000EB51ED6113D0EA51EA6EE951E96EED517A
:1007B000F26FF251E926EF50F36FF151EA6EF0510A
:1007C000ED25E96EF351EF6EED2BEAD7EF51EA6EAE
:1007D000EE29E96EED51EF6EE906020EE926E92AEF
:1007E000F051F26FF151EF6EE906F251EF6EECA1AC
:1007F00005D0EF51EA6EEE51E96EEF9CEF51EA6ED3
:10080000EE51E96E400EEF1AEF9AEF98EF86EF94F3
:10081000EF92EF90EF8E12000001D551E76F1200BA
:100820000001E791F2BEE781F29EF2BEFDD7C25110
:10083000E86FC351E96FE7B1F28EE7A1F29EE8518C
:10084000EA6FE951EB6F1200E751E95DE851EA63A5
:10085000EA5D07E3E751E95DEB6FE851EA59EC6FB8
:100860001200E751FF08EE6FFF0EE855ED6FE951FA
:10087000EE27EA51EF6FED51EF23EE2BD8B4EF2BBB
:10088000EE51EB6FEF51EC6F1200926A806A040E2A
:10089000936E816A946A826AC26A0F0EC16E6D8617
:1008A000F19E6DEC03F0E791E8698A0EE96FE80EBE
:1008B000EA6F9BEC03F08FEC03F0F28CF28E89EC84
:1008C00003F094EC03F0120045EC04F0DE6BDF6BF8
:1008D000E26BE36B10EC04F0EA51E06FEB51E16F77
:1008E000DE51E76FDF51E86FE051E96FE151EA6FE8
:1008F00024EC04F0030EEB65EC6701D029D0E05145
:10090000DE6FE151DF6FE22BE32B050EE36320D0B6
:10091000E36B0CEC04F0030EE76318D0D2A116D001
:10092000E46BE2510008E56FE66BE551E411E76F17
:10093000E651E7110BE0010EE86F000EEA6FE40EDE
:10094000E96F030EEB6FEC91B1EC03F0E26BE36B3C
:10095000000E81B4010AD2B3010AFF0B0FE081B48B
:100960000DD0640EE76F06EC00F081B407D0D2B171
:1009700003D0D281818202D0D2918192D29381B46C
:10098000D283A8D70001D291D2835E6A5F6AD36B0B
:10099000D295D46BC26BC36BC46BC56BD56B050EA4
:1009A000DB6F080EAE6FDB51AF6F050EDC6F100E04
:1009B000B06FDC51B16F050EDD6F000EB26FDD510F
:1009C000B36FB46BB56B080EB66FB76B080EB86F2C
:1009D000B96B080EBA6FBB6BBC6BBD6B596A5A6AB8
:1009E0005B6A5C6A5D6A120E8C6F010E8D6F100E71
:1009F0008E6F010E8F6F906B916B926B080E936FE1
:100A0000D80E946F040E956F0C0E966F976B986BC3
:100A1000020E996F010E9A6F020E9B6F9C6B010E76
:100A20009D6F050E056E010E066E090E076E020E15
:100A3000086EA10E096E010E0A6E090E0B6E010EF4
:100A40000C6EA10E0D6E0E6A050E0F6E090E106E65
:100A5000190E116E010E126E290E136E030E146E16
:100A6000150E156E166A250E176E010E186E950E70
:100A7000196E030E1A6E750E1B6E010E1C6E810E22
:100A80001D6E020E1E6E950E1F6E010E206E750EEF
:100A9000216E050E226E810E236E010E246E050E50
:100AA000256E010E266E090E276E300E286E090E79
:100AB000296E310E2A6E150E2B6E810E2C6E250EB0
:100AC0002D6E7F0E2E6E750E2F6E080E306E950EEB
:100AD000316E020E326E810E336E060E346EC00E13
:100AE000356EC00E366E090E376E020E386E220E4F
:100AF000396E3A6A010E3B6E010E3C6E3D6A800E05
:100B00003E6E640E3F6E090E406E040E416E426AE8
:100B1000436A010E446E030E456E010E466E020ED0
:100B2000476E486A090E496E210E4A6E100E4B6ED2
:100B3000010E4C6E4D6A010E4E6E220E4F6E320E3D
:100B4000506E516A070E526E050E536E810E546E32
:100B5000030E556E030E566E576A0A0E586E040E3B
:100B6000BE6F030EBF6F090EC06F040EC16F180E6B
:100B7000606F030E616F500E626F636B690E646F7E
:100B8000656B630E666F676B500E686F696B610E05
:100B90006A6F6B6B630E6C6F6D6B6B0E6E6F6F6B52
:100BA000200E706F716B490E726F736B6E0E746FE7
:100BB000756B630E766F776B140E786F030E796F1B
:100BC0004A0E7A6F7B6B6F0E7C6F7D6B790E7E6F3A
:100BD0007F6B2D0E806F816B4D0E826F836B6F0E5E
:100BE000846F856B750E866F876B730E886F896B4C
:100BF000650E8A6F8B6B64EF04F0EACF01F0E9CFEA
:100C000002F0F4CF03F0F3CF04F057EC03F0F2A4BA
:100C100011D00001F56BC451D624F46FC551F523F2
:100C2000F42BD8B4F52BF551D76EF451D66EF2945F
:100C30006AEC03F004C0F3FF03C0F4FF02C0E9FF55
:060C400001C0EAFF1100F3
:020000040030CA
:0E000000300E3E1EFF0080FF0FC00FE00F40CD
:00000001FF
